:100000000C943A000C9457000C9457000C94570031
:100010000C9457000C9457000C9457000C94570004
:100020000C94080E0C947E0F0C9457000C940F1334
:100030000C9457000C94A6130C9473040C94570062
:100040000C9457000C9457000C9457000C945700D4
:100050000C94570088099409A209AE09BA09BE098F
:10006000CA093F065B4F666D7D077F6F7639316E3B
:100070003777737911241FBECFE5D4E0DEBFCDBF43
:1000800010E0A0E6B0E0EAE4F8E202C005900D92CC
:10009000A436B107D9F721E0A4E6B0E001C01D9273
:1000A000A535B207E1F70E9486000C9423140C9446
:1000B0000000E2E3F1E080818D7F8083E5E2F1E002
:1000C00085818D7F85830895CF93C82F882311F074
:1000D00061E001C062E086E00E947D09C0932B01CF
:1000E000C0932C01C0932D01C0932E01C0932F010A
:1000F000C0933001C0933101C0933201C0933301EA
:10010000C0933401C0933501CF9108950E94A80493
:100110002FEF83ED90E3215080409040E1F700C045
:1001200000000E943E090E94C90D0E945B040E94CB
:10013000AE0A0E9489100E94350A86E00E94D40906
:1001400061E080E00E944C0962E080E00E944C097E
:100150009FE088E10FB6F894A89581BD0FBE91BDD0
:1001600078942FEF83ED90E3215080409040E1F7A9
:1001700000C000000E94C40661E080E00E944C09BB
:10018000C8E0D0E011E0812F0C2E01C0880F0A9446
:10019000EAF70E94DB0B8CE390E00E94E90D2197C7
:1001A00090F7C0E0D0E011E0812F0C2E01C0880F45
:1001B0000A94EAF70E94DB0B8CE390E00E94E90DC1
:1001C0002196C830D10581F780E00E94DB0B80EFDB
:1001D00090E00E94BD088091F0008134C0F081E081
:1001E0008093F0008093F1001092F2008093F3006E
:1001F0008CE08093F4001092F50082E08093F6008A
:1002000080EF90E00E949F088FEF0E941B09879962
:100210000AC00E94250B8091F0000E94DE0A90E047
:100220000E94EA0A02C00E943D0B8091F6000E94E3
:1002300026070E9429090E940F0780EF90E00E9484
:10024000981080918B0081FF4AC18AB18F768AB95C
:1002500080918A008C7F80938A00C3E061E086E011
:100260000E947D0984E690E00E94E90D62E086E04C
:100270000E947D0984E690E00E94E90DC15071F76B
:10028000DD9A0E94BB0462E086E00E947D0962E084
:1002900083E00E947D0962E084E00E947D098091F4
:1002A00033018F778093330161E080E00E944C0935
:1002B00062E080E00E944C0986E00E94D4098EE44E
:1002C0000E94030A80E00E94DB0B80E00E94450B45
:1002D00080E00E94900B0E941C0B0E9459008091AC
:1002E0008B0081FFCAC0809189000E94260C80E0AB
:1002F0000E943E0D883009F45CC0B8F48230C1F130
:10030000843009F443C0813009F098C081E00E9434
:10031000450B8091F0000E94DE0A90E00E94EA0AFC
:1003200040E461E080EF90E087C0803209F454C07F
:1003300090F4803109F082C080E10E94450B8091E9
:10034000F4000E94DE0A90E00E94EA0A48E160E0C0
:1003500084EF90E071C0803409F451C08F3F09F000
:100360006DC08DE30E94DE0A90E00E94EA0A66C03A
:1003700082E00E94450B8091F100806C90E00E9429
:10038000EA0A48E061E081EF90E056C084E00E9414
:10039000450B8091F200882319F08FE390E002C0B2
:1003A0008BE090E00E94EA0A41E060E082EF90E09A
:1003B00043C088E00E94450B8091F300882319F028
:1003C0008FE390E002C08BE090E00E94EA0A41E0F7
:1003D00060E083EF90E030C080E20E94450B8091A6
:1003E000F500882319F08FE390E002C08BE090E0E5
:1003F0000E94EA0A41E060E085EF90E01DC080E4E1
:100400000E94450B8091F600813011F48AE00BC008
:10041000823011F489E107C0833011F488E203C00F
:10042000843031F481E40E94DE0A90E00E94EA0AFE
:1004300044E061E086EF90E00E94600D80918A00C8
:1004400083FF4DCF809189000E94640047E060E007
:1004500081E690E00E94600D8091610080936000D1
:1004600080918A0083FDEECF80E00E94640086E0E8
:100470000E94F70C81FDFBCF32CF8091F0000E94EB
:10048000DE0A90E00E94EA0A85EA0E943E0D80EFB3
:1004900090E00E949F0880E00E94260C80E00E946D
:1004A000900B80E00E94450B8091F6000E94260789
:1004B00080918B008E7F80938B000E94DF0D0E94C5
:1004C000E40D80918B00807680938B0080912A01CF
:1004D0008D7E80932A0180EF90E00E94981086E044
:1004E0000E94080D84FF12C086E00E94F70C84FF72
:1004F0000BC080918B0081FFF7CF80912A018F7E06
:1005000080932A01C0E013C0C1E011C00E947A09A3
:10051000811108C0B19B08C00E944D11811106C015
:10052000C5E005C0C2E003C0C3E001C0C4E08C2F39
:100530000E943611C33009F4D7C020F5C13009F448
:10054000EDC0C23009F00BC10E947A09C82F0E9489
:10055000250B80E00E94DB0B0E9418078C230E9471
:10056000260C82EE90E00E94EA0A85E00E94030ACF
:1005700082E00E94D40961E08C2F0E944C0961E066
:1005800081E0E9C0C43009F47EC0C53009F0E7C09D
:1005900061E087E00E947D09879960C00E94250B79
:1005A00080E00E94260C8091F0000E94DE0A90E01C
:1005B0000E94EA0A85E00E94030A81E00E946E0917
:1005C000882311F085E001C086E00E94D40986E00E
:1005D0000E94080D81FF2AC084E00E94080D61E09E
:1005E0008F3F79F480E00E944C090E9418070E9416
:1005F000DB0B809132018D7F8093320110922801B4
:100600000FC08FEF0E944C090E9418070E94DB0B5D
:10061000809132018260809332018FEF80932801B4
:1006200080912A018D7F80932A0199C084E00E94E5
:10063000080D909132018F3F11F4926001C09D7FAF
:100640009093320184E00E94080D61E00E944C0901
:1006500081E00E946E090E94DB0B81C00E943D0B6D
:1006600080E00E94DB0B80E00E94260C0E941C0BA5
:1006700061E080E00E944C0986E00E94D4098EE48B
:100680000E94030A6AC00E945311C82F0E944D1194
:10069000853038F00E944D118A3018F461E085E011
:1006A00002C061E087E00E947D090E94250B0E9444
:1006B0004D11806D90E00E94EA0A85E00E94030AD5
:1006C00084E00E94D4090E9450110E94180A61E03F
:1006D0008C2F0E944C0980E00E94DB0B0E941807BF
:1006E0008C230E94260C39C00E94250B80E00E94BA
:1006F000DB0B0E9418070E94260C83EE90E00E94FC
:10070000EA0A85E00E94030A83E00E94D40961E0BE
:100710008FEF0E944C0961E082E01DC00E94250B12
:1007200080E00E94DB0B0E941807909162008923F1
:100730000E94260C81EE90E00E94EA0A85E00E9469
:10074000030A81E00E94D4098091620061E00E9466
:100750004C0961E085E00E947D090E94590082E019
:100760000E94F70CC82F80918B0084708C2B81F134
:1007700082E00E94F70C882321F080918B0082FF99
:10078000F7CF80918B0082FF19C00E9415078C2340
:1007900019F48C2F0E94CD078C2F0E940F0782E046
:1007A0000E94F70C8111FBCF0E9415070E941B09C4
:1007B00080918B008B7F80938B000AC08C2F0E94CE
:1007C000CD070E941C078C2319F08C2F0E9414085F
:1007D0008091F40081110CC080918B0080FF12C0C9
:1007E0000E949A0780918B008E7F80938B000AC0B5
:1007F0000E94DC0D9091F400891720F00E949A0766
:100800000E94DF0D8091F200813019F40E94C5042E
:1008100003C0DD9A0E94BB048091330187FF02C0B0
:1008200061E001C062E083E00E947D090E94180738
:100830008F3F11F061E00CC00E941C07C82F0E947E
:1008400015078C23B9F70E94AD048111F3CF62E044
:1008500084E00E947D090E941807C82F0E94150796
:100860002C2F30E02095309590E082239323892B24
:1008700011F061E01CC00E94AD04882321F080913A
:10088000F5008111F6CF0E941C07C82F0E941507A2
:100890008C2321F08091F5008111EBCF8091330101
:1008A00087FF04C08091F5008111E3CF62E086E00C
:1008B0000E947D09C6CC86B1876886B90895806498
:1008C00087B980E4809366001092650010926400FE
:1008D000339A369A809166008111FCCF8091640032
:1008E0009091650008951F920F920FB60F921124F8
:1008F0002F933F938F939F9324B135B180916400E0
:1009000090916500820F931F90936500809364001F
:100910008091660081508093660081110FC03398EA
:10092000809164009091650024E0969587952A95C2
:10093000E1F7909365008093640001C0369A9F911F
:100940008F913F912F910F900FBE0F901F90189590
:10095000D59ADD9AA498AC9808959C9B05C081E037
:10096000809361008EEA0895809160008093610019
:100970008091690008959C9905C0809134018D7F14
:10098000809334011092690008951F93CF93DF93F1
:1009900090918B0080918B0090728074892B09F06C
:1009A0005BC0DD9A88EE93E00E94E90D18E0C0E09C
:1009B000D0E086E00E945F04C80FD91F1150C9F72C
:1009C00083E0D695C7958A95E1F78BE08C9F9001DF
:1009D0008D9F300D1124E901D695C795D695C79501
:1009E000C20FD31F45E0369527954A95E1F7C21B04
:1009F000D30BD0936800C0936700C333D10520F0B8
:100A0000C13D87E0D80720F48FEA809369000AC0CF
:100A1000CD328CE4D80740F48FEA80936900C13569
:100A2000D644A0F4DD9A13C0C43180E5D80770F035
:100A30000E94BB04C837D94610F0DD9A01C0DD988A
:100A40000E94E40D80918B00806404C0DD98809149
:100A50008B00806280938B00DF91CF911F9108956E
:100A60008095E8EFF0E0908198239083918198231E
:100A70009183928198239283938198239383948185
:100A8000892384830895CF92DF92EF92FF921F9380
:100A9000CF93DF937B01C1E0D0E001C0CC0F8A95FA
:100AA000EAF762E08C2F0E944C098C2F0E94450BC4
:100AB000C7010E94E90D18E0C0E0D0E087E00E9485
:100AC0005F04C80FD91F1150C9F753E0D695C795D9
:100AD0005A95E1F7C73E87E0D80710F0C7EED7E098
:100AE00062E080E00E944C0920916C0030916D0022
:100AF000C63487E0D80738F4C90145E09695879554
:100B00004A95E1F720C0CE0186549740883591057B
:100B100078F4D901AA0FAB2FAA1FBB0BB195A20F76
:100B2000B31FA90183E0569547958A95E1F71EC04A
:100B3000CE018E599740809750F4C901F3E0969505
:100B40008795FA95E1F7D901A81BB90B11C0C90126
:100B500073E0969587957A95E1F7D901A81BB90BB3
:100B6000A901E5E056954795EA95E1F7A41BB50B79
:100B700080E098E06C01CC1ADD0AE12CF12C9E019A
:100B80000E9409146B5F7F4F8F4F9F4F2AE030E028
:100B900040E050E00E94E113D701C601B695A79549
:100BA00097958795BC01CD01620F731F841F951F18
:100BB000A70196010E94E113C901DF91CF911F9116
:100BC000FF90EF90DF90CF90089520916A0022303F
:100BD000E1F098F4213099F59C01B4E03695279521
:100BE000BA95E1F7AC0165E0569547956A95E1F74E
:100BF000240F351F892F99271FC0233059F0243027
:100C0000F1F49C01369527950AC09695879596959F
:100C1000879508959C013695279536952795AC01C3
:100C200063E0569547956A95E1F7240F351F75E007
:100C3000969587957A95E1F7820F931F089580E046
:100C400090E008951F93CF93DF93E82FF0E0EF013A
:100C5000CC0FDD1FFE01E050FF4F40815181411557
:100C6000510531F59B01255131092B31354790F460
:100C7000182F71836083CB010E94E505FE01E05FC0
:100C8000FE4F9183808381E090E001C0880F1A9528
:100C9000EAF771C021E030E0A90102C0440F551FFE
:100CA0008A95E2F7CA016531710508F046C01BC09C
:100CB000FE01E05FFE4F20813181FA01E21BF30B60
:100CC0006E177F0720F06431710520F021C0643178
:100CD000710578F421E030E0A90102C0440F551FEE
:100CE0008A95E2F7CA019091FC00892B8093FC0061
:100CF00047C021E030E0A90102C0440F551F8A958A
:100D0000E2F7CA019091FB00892B8093FB0038C069
:100D1000240F351F2617370720F06133754720F45D
:100D200021C06133754778F021E030E0A90102C0AD
:100D3000440F551F8A95E2F7CA019091F800892B5C
:100D40008093F8001DC021E030E0A90102C0440FEB
:100D5000551F8A95E2F7CA019091F900892B80937B
:100D6000F9000EC021E030E0A90102C0440F551F78
:100D70008A95E2F7CA019091FA00892B8093FA00D4
:100D8000DF91CF911F910895CF92DF92EF92FF9262
:100D90000F931F93CF93C8E0C12CD12C760187E02D
:100DA0000E945F04C80ED91EE11CF11CC150B9F7A6
:100DB000A701960183E056954795379527958A9523
:100DC000D1F7CC24CA949FE0D92EE12CF12CC21A81
:100DD000D30AE40AF50AA0E1B7E20E9418149701C9
:100DE00086013695279517950795600F711F821F0D
:100DF000931FA70196010E94E11360E870EF8AEF4C
:100E000092E00E94E11330936D0020936C00CF912B
:100E10001F910F91FF90EF90DF90CF900895E8EF32
:100E2000F0E095818927858308958091FD000895DC
:100E30008091FC0080950895E8EFF0E09081838137
:100E4000892B9181892B9481892B0895BF92CF9210
:100E5000DF92EF92FF920F931F93CF93DF939091C6
:100E60006B00916090936B0080936A008FEF0E94FB
:100E7000300500E011E080E1E82E81E0F82EC0E0CE
:100E8000D0E0CC24C394D12CF8011182108264EFFD
:100E900071E08C2F0E9443059C01255131092B31B3
:100EA0003547A0F4F801918380830E94E505F7019E
:100EB000918380832091FA00C6010C2E01C0880F17
:100EC0000A94EAF7822B8093FA0019C0459760F4E0
:100ED000C6010C2E01C0880F0A94EAF79091FC001D
:100EE000892B8093FC000BC0C6010C2E01C0880F1B
:100EF0000A94EAF79091F800892B8093F8002196E4
:100F00000E5F1F4F32E0E30EF11CC830D10509F02F
:100F1000BBCF80916B008E7F80936B0080E0DF9170
:100F2000CF911F910F91FF90EF90DF90CF90BF90E6
:100F30000C94450BCF93DF9380916B00816080937D
:100F40006B008091FD000E94300580E00E94450BFF
:100F500080E00E94900BC0E0D0E08091FD0090E026
:100F60000C2E02C0959587950A94E2F780FF09C080
:100F700068EE73E08C2F0E944305BC018C2F0E9409
:100F800022062196C830D10541F780916B008E7FF3
:100F900080936B00DF91CF910895CF93882309F45C
:100FA00041C090916B00916090936B0020E030E025
:100FB00090E0C22FAC01022E02C0559547950A94CD
:100FC000E2F740FD06C02F5F3F4F2830310589F71B
:100FD000C8E081E00C2E01C0880F0A94EAF70E9455
:100FE000300580E00E94450B80E00E94900B68EE87
:100FF00073E08C2F0E944305BC018C2F0E942206B7
:1010000080912601877F809326018091FC00809546
:101010009091280189238093280180916B008E7F15
:1010200080936B00CF910895F89490918B00986015
:1010300090938B008093FE009091F800982311F01C
:1010400081EA11C09091F900982311F082EA0BC057
:101050009091FB00982311F083EA05C09091FC0069
:10106000892321F084EA8093FF0078940895CF9338
:1010700080916B0080FD46C01092880080918B00AB
:1010800083FF22C08091FF00843A51F09091890043
:10109000992321F090E00E94EA0A02C00E941C0BF2
:1010A000809189009091F8002091FB00292B3091CC
:1010B000F900232B9091FC009823822F892BC0915B
:1010C000FE00C8238C2F1AC0C091FD009091F8003B
:1010D0008091FB00982B2091F900922B9C2380910A
:1010E000FC008C2340918900209189003091FA0006
:1010F000C323C92B2823C227842389270E94900B4E
:101100008C2F05C08091880082700E946E09CF915B
:101110000C94450BE199FECF70E07FBB6EBB8DBB9D
:10112000F894E29AE19A78940895E199FECFF894C0
:1011300090E09FBB8EBBE09A78948DB30895EF92B8
:10114000FF920F931F93CF93DF937C01D5E087012C
:10115000C0E06C2F6D0FF80181918F010E948A0809
:10116000CF5FC830B1F7D85FDD3189F7DF91CF911C
:101170001F910F91FF90EF9008958F929F92AF92E1
:10118000BF92CF92DF92EF92FF920F931F93CF9374
:10119000DF93CDB7DEB768970FB6F894DEBF0FBE0A
:1011A000CDBF4C018E010F5F1F4F580185E0D82E37
:1011B000CD2CE12CF12C8C2D0E949508F501EE0D23
:1011C000FF1D80838FEFE81AF80AC394A8E0EA169F
:1011D000F10489F7B8E0DB0E88E0A80EB11CADE1A0
:1011E000DA12E6CFF401AE01475F5F4FB801D801D4
:1011F0002D918D011F968C91322F382BDB01189683
:101200009C9193238223892B81930417150771F7EF
:1012100068960FB6F894DEBF0FBECDBFDF91CF91B9
:101220001F910F91FF90EF90DF90CF90BF90AF9004
:101230009F908F900895CF93C82F6FE10E948A08E6
:1012400060E28C2F0E948A0861E28C2FCF910C946F
:101250008A08CF93DF938FE10E949508D82F80E210
:101260000E949508C82F81E20E9495089D2F982B17
:10127000C9238D238C2BDF91CF910895B89AC09A02
:10128000B998C198BA9AC2988E9A96988F9897985A
:10129000D198D9980C949E0DCF93C82F613041F40A
:1012A0000E9418078C2380937000809373000DC0F8
:1012B000623039F0633049F480936E00809371009E
:1012C00004C080936F00809372006EE670E083E04C
:1012D0000E94A90D80937400CF910895813019F474
:1012E000809173000895823019F4809172000895FE
:1012F00080E0089580917400089590E0FC0131979A
:10130000E730F10508F04BC0E65DFF4F0C94031485
:10131000613021F480917100816011C0623051F51B
:10132000809171008E7F0BC0613021F4809171003B
:10133000826005C06230F1F4809171008D7F8093EE
:10134000710018C0613021F480917100846025C063
:10135000623029F5809171008B7F1FC0613021F4CC
:1013600080917100886019C06230C9F48091710069
:10137000877F13C08091710080610FC0613021F4BC
:1013800080917100806209C0623049F480917100DF
:101390008F7D03C0809171008C7E8093710080915D
:1013A000710063E00C944C098330D9F028F481304B
:1013B000E9F0823089F00895853021F028F08630F8
:1013C000D1F0089580E013C082E00E943C0A80E0E2
:1013D0000E944E0AC29A089583E00E943C0A82E06D
:1013E0000EC083E00E943C0A81E009C081E00E94B7
:1013F0003C0A80E004C083E00E943C0A83E00E9433
:101400004E0AC2980895853071F4869910C086E01E
:101410000E94D4098AE090E00E94E90D969A8CED32
:1014200095E00C94E90D8E3411F486999698089500
:10143000823041F0833079F0813091F480917100F5
:101440008F730CC0809171008F7B809371008091AD
:101450007100806803C080917100806C809371007E
:101460008091710063E00C944C0984B38F6084BB5D
:1014700085B38F6085BB0895813041F028F08230BC
:1014800041F0833041F00895A89801C0A89AA99826
:101490000895A89801C0A89AA99A0895813059F092
:1014A00028F0823029F0833041F00895AA9801C0D5
:1014B000AA9AAB980895AA9801C0AA9AAB9A0895DF
:1014C00020E030E090E0D998AC01022E02C05595A2
:1014D00047950A94E2F740FF02C0DA9A01C0DA9811
:1014E000D99A2F5F3F4F2830310569F70895D89872
:1014F0000E94600ADA98D89A0895E82F60E070E0B8
:1015000080E0DB01A05EBE4F9C912C9130E00E2E5E
:1015100002C0359527950A94E2F728703327A90170
:101520005595479555954795292F30E00E2E02C0C9
:10153000359527950A94E2F721703327242B352B14
:10154000AB01440F551F01C0220F4A95EAF7822BC9
:101550006F5F7F4F64307105A1F60895D19AD09ADC
:10156000D29AD89AD99ADA980895CF93DF931F9296
:10157000CDB7DEB7198280E40E94770AD89880EC54
:101580000E94600A198289818B3058F4E981F0E069
:10159000E55DFE4F80810E94600A89818F5F8983AB
:1015A000F2CFD89A83E00E94770A80916100886820
:1015B0000E94770A0F90DF91CF91089520E08A3042
:1015C00018F08A502F5FFBCF90E1299F90011124E2
:1015D000822B0895F89420913301309131012078C5
:1015E000FC018F3F910509F090F4EF70FF27EE5951
:1015F000FF4FE4912E2B209333013078FC01E07FE4
:10160000FF2794E0F695E7959A95E1F70DC0FF273F
:10161000EE59FF4FE4912E2B209333013078FC01DB
:10162000EE27FF77EF2FFF27EE59FF4FE491E32BD3
:10163000E093310178940895EBE2F1E080858078C1
:1016400080878681807886830895F89480918B00C6
:101650008F7E80938B008091340181608093340170
:101660000E94AD0490913401882311F0926001C072
:101670009D7F9093340178940895F89480918B0025
:10168000806180938B007894089590912B0180FF66
:1016900002C0916001C09E7F90932B0190912B011D
:1016A00081FF02C0946001C09B7F90932B019091B9
:1016B0002B0182FF02C0906101C09F7E90932B019D
:1016C00090912B0183FF02C0906401C09F7B909397
:1016D0002B0190912C0184FF02C0916001C09E7F7C
:1016E00090932C0190912D0185FF02C0916001C063
:1016F0009E7F90932D0190912D0186FF02C09460F2
:1017000001C09B7F90932D0190912D0187FF03C015
:10171000892F806102C0892F8F7E80932D010895CB
:1017200090912B0180FF02C0926001C09D7F909339
:101730002B0190912B0181FF02C0986001C0977F1F
:1017400090932B0190912B0182FF02C0906201C007
:101750009F7D90932B0190912B0183FF02C0906895
:1017600001C09F7790932B0190912C0184FF02C0C0
:10177000926001C09D7F90932C0190912D0185FF77
:1017800002C0926001C09D7F90932D0190912D0128
:1017900086FF02C0986001C0977F90932D019091C1
:1017A0002D0187FF03C0892F806202C0892F8F7DA2
:1017B00080932D01089590912D0180FF02C09064C7
:1017C00001C09F7B90932D0190912E0181FF02C05B
:1017D000916001C09E7F90932E0190912F0182FF16
:1017E00002C0916001C09E7F90932F0190912F01C4
:1017F00083FF02C0946001C09B7F90932F01909162
:101800002F0184FF02C0906101C09F7E90932F0141
:1018100090912F0185FF02C0906401C09F7B90933F
:101820002F019091300186FF02C0916001C09E7F20
:10183000909330019091310187FF03C0892F806818
:1018400002C0892F8F7780933101089590912D01E7
:1018500080FF02C0906801C09F7790932D01909106
:101860002E0181FF02C0926001C09D7F90932E01E6
:1018700090912F0182FF02C0926001C09D7F9093E2
:101880002F0190912F0183FF02C0986001C0977FC4
:1018900090932F0190912F0184FF02C0906201C0AC
:1018A0009F7D90932F0190912F0185FF02C090683A
:1018B00001C09F7790932F019091300186FF02C065
:1018C000926001C09D7F909330019091320187FF1B
:1018D00003C0892F816002C0892F8E7F80933201DF
:1018E0000895CF93DF93C0918700C33008F061C0A3
:1018F000D0E0D89882E40E94600AD29840E050E09C
:10190000A1E0B0E085E08C9FB0018D9F700D1124A7
:1019100068587F4F20E030E080E00000D998000058
:10192000000000000000FD01022E01C0EE0F0A942D
:10193000EAF7CA9B03C08E2B000002C0E0958E23FD
:101940000000D99A00000000000000000000000024
:1019500000002F5F3F4F28303105F9F6FB01E40FFF
:10196000F51F80834F5F5F4F4530510599F6DA9838
:10197000D29AD89AD9988091870095E0899FF001F2
:101980001124E858FF4F9081947261F49181947210
:1019900049F49281947231F49381947219F4948190
:1019A000947219F0109287001FC08F5F8093870098
:1019B0001BC01092870080E090E0FC01E858FF4FC8
:1019C0007081658145815285208132856723452359
:1019D000462B3223242F232BFC01E05EFE4F208375
:1019E00001968530910549F7DF91CF9108958430B4
:1019F00031F0863039F0823049F480E001C081E076
:101A00000C947D0A809124018271089580E00895EC
:101A1000FF920F931F93CF93DF93F82E0E94F70C42
:101A2000CF2DD0E0FE01ED5DFE4F81110AC0108286
:101A300084E0F8121AC00E941807FE01EC5DFE4F08
:101A400011C09081891789F080838E010C5D1E4F33
:101A5000F801908189278083F4E0FF1206C00E947C
:101A60001807F801908189238083CC5DDE4F88813F
:101A7000DF91CF911F910F91FF900895853A31F436
:101A8000109277001092760080E0089584E00E9422
:101A9000F70C87FD13C080E00E947D0A8F7719F450
:101AA0001092770008C090917700891721F08093F9
:101AB0007700809376008091760008958FEF0895E7
:101AC0000F931F93CF93DF93EC01162F042F809178
:101AD0008B0087FF07C080918B008F7780938B00EE
:101AE0001092750084E00E94F70C813019F082306A
:101AF00079F01DC08091750080FD1BC081608093CE
:101B000075008881181710F481500DC0088311C02A
:101B10008091750081FD0DC0826080937500888181
:101B2000801718F48F5F888304C0188302C0109256
:101B30007500DF91CF911F910F91089587B3806B4E
:101B400087BB88B3806E88BBC49882E58DB91EB808
:101B50000895CF93DF931F92CDB7DEB71982C49853
:101B6000FB01882371F0C09895E39A95F1F7000086
:101B7000C09A91919FB9779BFECF9FB19983815075
:101B8000F0CFC49AC498898180950F90DF91CF914E
:101B9000089584E680933E0186EF8DBD8BE38CBD76
:101BA0008EB583608EBD86E082BF83B7836083BFBE
:101BB00089B7856089BF0895809139010895F894A7
:101BC0001092390178940895F8941092380178941D
:101BD0000895CF93DF9300D0CDB7DEB79A83898382
:101BE00089819A81892B79F0F8941092450110929D
:101BF00044017894209144013091450189819A8172
:101C000028173907B9F70F900F90DF91CF910895FA
:101C10001F920F920FB60F9211242F933F934F9361
:101C20005F936F937F938F939F93AF93BF93EF9344
:101C3000FF9386EF8DBD8BE38CBDA895809141010C
:101C40008F5F809341018C3038F010924101809178
:101C50008800809580938800809140018F5F8093F9
:101C60004001823308F467C01092400180918900DE
:101C7000809580938900809136018F5F8093360133
:101C80008E3178F11092360180918B0081608093C3
:101C90008B0080918B008F7D80938B00809137012A
:101CA0008F5F80933701803F70F0109237018091F1
:101CB00039018F5F8093390180913901893118F0A2
:101CC00088E180933901809138018F5F80933801DA
:101CD0008A3038F01092380180918B008F7B80938E
:101CE0008B0080918B0083FF0EC080913A018F5F43
:101CF00080933A01863038F010923A0180918B003F
:101D0000877F80938B0080918B0084FF14C090911B
:101D100089008091340190FB80F9809334010E9406
:101D2000AD04882341F0909189008091340190FBAB
:101D300081F98093340180918B0081FD11C00E9454
:101D400037080E94AD0490918900892349F0809161
:101D50008B0083FD05C00E94AD0490E00E94EA0A5A
:101D600078940E94B50A0E94710CF8948091240125
:101D700084FF0DC080913B0190913C0101969093AE
:101D80003C0180933B018C32914058F432C082E098
:101D90000E94F70C8111EECF10923C0110923B0192
:101DA00028C08091240184FF12C080913B01909152
:101DB0003C01843F9140E8F010923C0110923B01BD
:101DC00090918B0082E0892780938B0012C0109243
:101DD0003C0110923B0180918B00846080938B00CA
:101DE00080918B008E7F80938B0010923601109231
:101DF000370186E00E94080D84FF1BC084E00E942A
:101E0000F70C8823A1F080913F018F5F80933F0101
:101E100080913F01843668F010923F0184E00E9477
:101E2000F70C9091620089278093620002C01092A3
:101E30003F0180918B0081FF3DC084E00E94F70C40
:101E4000811104C08091240181FF2FC080913D0148
:101E50008F5F80933D0190913D0180913E019817E5
:101E600078F084E00E94F70C882351F010923D0135
:101E700089E080933E0180918B00806880938B0085
:101E800080913D018F3FB1F490912401969591701E
:101E90008091240182958170891760F490918A0065
:101EA00088E0892780938A0005C010923D0184E66E
:101EB00080933E0180913501CB9B02C08E7F01C093
:101EC00081608093350180918A0081FD0E945611C6
:101ED00080918A0080FD0E948111FF91EF91BF9156
:101EE000AF919F918F917F916F915F914F913F91B2
:101EF0002F910F900FBE0F901F9018951F920F9269
:101F00000FB60F9211242F933F934F935F936F93CC
:101F10007F938F939F93AF93BF93EF93FF9386E04D
:101F200082BF8091440190914501019690934501B3
:101F30008093440180918A0082FF07C080918A00CB
:101F40008B7F80938A000E949D12839B0AC08091A0
:101F500042018F5F809342018F3019F49398109261
:101F60004201849B0AC0809143018F5F80934301AB
:101F70008F3019F4949810924301FF91EF91BF9123
:101F8000AF919F918F917F916F915F914F913F9111
:101F90002F910F900FBE0F901F901895FC019FEF8F
:101FA00081E3615060F02191922728E097FF03C000
:101FB000990F982701C0990F2150C1F7F2CF892FAF
:101FC0008F7708956EE48EE890E00E94CE0F909196
:101FD000DC00891397C0939AE0914601E13049F4FF
:101FE0001092EF001092EE00809133018F77809372
:101FF000330180919000811139C08091920020912D
:1020000047018F7790E03FEF320F02C0959587959B
:102010003A95E2F780FD08C0283009F06AC0809147
:102020009300882309F465C080918F0084FF61C00C
:1020300080918F002091E8008F7090E030E082174F
:1020400093070CF45FC080918F008F708093E8003D
:102050001092ED008091E8008093EB008091910058
:10206000829583708093E9008FEF40C0F0E0EF56D7
:10207000FF4F80818F7751F4A0915301B0E0AE52B1
:10208000BF4F9C9180915401892399F180918F00D9
:1020900084FF2FC080918F002091E8008F7090E026
:1020A00030E08217930774F180918F008F708093D6
:1020B000E8001092ED008091E8008093EB008091A1
:1020C0009100829583708093E90080818F7780935F
:1020D000EA00E0915301F0E0EE52FF4F90818091D1
:1020E0005401892379F08091EA0080688093EA00A6
:1020F00009C080918F009091EB008F70891302C00E
:102100001092E80010924F0110928E0010928F00F2
:10211000089581B38C6181BB82B3837E82BB84E0EE
:1021200089B910BC1BB888E08AB986E880BD0895DB
:10213000CF93DF931F92CDB7DEB7FC01F894908167
:102140009093460181818093470183818093490167
:10215000811105C0809133018F77809333011092F4
:10216000EB001092E9001092EA001092E80098301B
:1021700020F410925301915047C088EF890F8730A7
:1021800028F481E08093530198503EC081EF890F7D
:10219000873028F482E0809353019F5035C08AEE47
:1021A000890F873028F483E08093530196512CC027
:1021B00083EE890F873028F484E0809353019D518A
:1021C00023C08CED890F873028F485E0809353017C
:1021D00094521AC085ED890F873028F486E08093E9
:1021E00053019B5211C08EEC890F873028F487E091
:1021F00080935301925308C087EC890F873070F4A5
:1022000088E080935301995321E030E0A90102C096
:10221000440F551F9A95E2F7CA0106C0903431F475
:1022200089E08093530181E0809354018081813063
:1022300021F480918A00816012C056981092510159
:1022400092988CB1898310924F0110928E00109257
:102250008F008AB180698AB980918A0082608093F8
:102260008A0078940F90DF91CF910895833091F098
:1022700028F4813041F0823041F00895843039F003
:10228000853039F0089585E005C084E003C082E020
:1022900001C081E08093EC0008958091EB000895E7
:1022A0008091E90008958091EA0008958091EE0000
:1022B0009091EF0001969093EF008093EE008639A5
:1022C0009105F0F01092EF001092EE001092EB00EA
:1022D0001092E8001092EA0010924F0110928E00C6
:1022E00010928F008AB180698AB9909149018091DA
:1022F0003301992311F0806801C08F7780933301F7
:1023000008950F931F93CF93DF931F92CDB7DEB73E
:10231000198210918D00123009F49BC030F4112302
:1023200059F0113009F473C0FDC0133009F4A0C096
:10233000143009F4BEC0F6C085E88093DE0081E069
:102340008093DF00809147018F7089830E94150779
:10235000182F0E941C07082F0E941807498190E03F
:1023600080959095802B212F30E0822393239595A3
:1023700087959595879580729927842B898381E02D
:102380000E946E0999818695869586958071982B15
:10239000998389818093E0008091EB008F7089831D
:1023A0000E94AD04882319F0898180618983898125
:1023B0008093E1008091EC008F708093E20081E0D7
:1023C0000E946E098F778093E3000E941507182FF3
:1023D0000E941C07082F0E9418078095082B1023C5
:1023E0001F771093E4001092E5001092E60069E078
:1023F0008EED90E00E94CE0F8093E7008AE08093FC
:102400005201949A82E080938C0081E01FC081E8A1
:102410008093DE0080918C008F778093DF0062E0F4
:102420008EED90E00E94CE0F8093E00083E08093D9
:10243000520180918C008F5F80938C0010938D00EF
:1024400080918C008A3409F06DC082E080938D0009
:1024500069C084E88093DE0082E18093DF001093FE
:10246000520189E480938C001092E80083E0EECF63
:1024700082E88093DE0080918C008F778093DF006C
:1024800062E08EED90E00E94CE0F8093E00010930A
:10249000520180914E01826080934E0180918C00A8
:1024A000815080938C0080918C008034D9F584E039
:1024B000CDCF8AB18F768AB983E88093DE0085E03C
:1024C0008093DF0082E0809352018091EE00909132
:1024D000EF0001969093EF008093EE00049798F040
:1024E0001092EF001092EE001092EB001092E800B4
:1024F0009091490180913301992311F0806801C0C6
:102500008F77809333018091ED008F5F8093ED0092
:10251000843030F01092ED001092EB001092E80041
:1025200010928D00929A8091DE008CB9569A0F908D
:10253000DF91CF911F910F9108950F931F93CF9328
:10254000DF9385E88093DE00809146018F7780934A
:10255000DF00109147011F700E941507C82F0E94CD
:102560001C07082F0E941807D82F81E00E946E09CF
:102570002D2F30E020953095202B4C2F50E0242338
:1025800035233595279535952795207233278695E0
:10259000869586958071182B212B2093E000C091A1
:1025A000EB00CF700E94AD048111C061C093E100C7
:1025B0008091EC008F708093E20081E00E946E09B0
:1025C0008F778093E3000E941507C82F0E941C0795
:1025D000D82F0E9418078095D82BCD23CF77C09392
:1025E000E4001092E5001092E60069E08EED90E0C4
:1025F0000E94CE0F8093E70080914E01826080930D
:102600004E01949A8AE080935201929A8091DE0062
:102610008CB9569ADF91CF911F910F9108951F9217
:102620000F920FB60F9211242F933F934F935F9306
:102630006F937F938F939F93AF93BF93CF93EF93BA
:10264000FF938BB1CCB18C7109F06EC080914F01BA
:102650008F5F80934F0180914601813071F4E0914A
:102660004F01F0E0E357FF4FC08380914F018F345B
:1026700008F45AC00E94E20F57C090918E00913822
:1026800029F090918E00983809F045C090918E0005
:102690009138B9F590918F00891329C062E08EE8D6
:1026A00090E00E94CE0F10924F0110928E00109277
:1026B0008F008C1339C08091ED008F5F8093ED0007
:1026C000853030F01092ED001092EB001092E8008F
:1026D0001092EF001092EE00809133018F7780937B
:1026E000330180918A00846080938A001DC08C171A
:1026F00029F010924F0110928E0081E080938F009C
:1027000013C080918E00883809F4A9CF10924F0130
:1027100010928E0009C0C13811F0C83819F4C09366
:102720008E0002C010924F01FF91EF91CF91BF91A7
:10273000AF919F918F917F916F915F914F913F9159
:102740002F910F900FBE0F901F9018951F920F9210
:102750000FB60F9211248F939F93EF93FF93809165
:1027600051018F5F80935101909152018917C8F0F8
:1027700056981092510110925201929880914E01F8
:1027800081FF16C080914E018D7F80934E01109283
:102790004F0110928E0010928F008AB180698AB921
:1027A00007C0E0915101F0E0E252FF4F80818CB907
:1027B000FF91EF919F918F910F900FBE0F901F90FF
:1027C0001895A1E21A2EAA1BBB1BFD010DC0AA1F62
:1027D000BB1FEE1FFF1FA217B307E407F50720F08A
:1027E000A21BB30BE40BF50B661F771F881F991F05
:1027F0001A9469F760957095809590959B01AC014E
:10280000BD01CF010895EE0FFF1F0590F491E02D5B
:102810000994A29FB001B39FC001A39F700D811DB9
:102820001124911DB29F700D811D1124911D0895D9
:102830000E940914A59F900DB49F900DA49F800D38
:0A284000911D11240895F894FFCFB4
:04284A000202FF0087
:00000001FF
