:100000000C9433000C9450000C9450000C9450004D
:100010000C9450000C9450000C9450000C94500020
:100020000C9450000C94FE040C9450000C946D063B
:100030000C9450000C94CE060C9450000C9457076E
:100040000C9476000C9450000C9450000C94C50055
:100050000C9450003F065B4F666D7D077F6F7639CD
:10006000316E3777737911241FBECFE5D8E0DEBF3C
:10007000CDBF10E0A0E6B0E0E0E0FFE002C00590F8
:100080000D92A437B107D9F721E0A4E7B0E001C091
:100090001D92A335B207E1F70E9452000C947E072F
:1000A0000C940000CF93DF93CDB7DEB72B970FB63C
:1000B000F894DEBF0FBECDBF0E94CC040E94B406F0
:1000C0000E94BA0078948BE0E9E6F0E0DE01119638
:1000D00001900D928A95E1F76AE0CE0101960E94A7
:1000E000C30688EE93E00E94DF04F6CF1F920F92C2
:1000F0000FB60F9211242F933F938F939F9324B1A8
:1001000035B18091740090917500820F931F909388
:100110007500809374008091760081508093760002
:1001200081110FC03398809174009091750024E084
:10013000969587952A95E1F79093750080937400C2
:1001400001C0369A9F918F913F912F910F900FBED2
:100150000F901F9018959C9B05C081E080936700CD
:100160008EEA089580916600809367008091770001
:100170000895089585B3836085BB84B38C7F84BB69
:100180008FEF80B983E081B908951F920F920FB667
:100190000F9211242F933F934F935F936F937F930D
:1001A0008F939F93AF93BF93EF93FF9381B1887F1A
:1001B000803609F414C1A0F5883209F497C090F490
:1001C000803109F466C038F4882309F456C08830B9
:1001D00009F457C058C1883109F46CC0803209F461
:1001E000C6C051C1803409F4BFC080F4803309F423
:1001F000B3C0883309F047C18091F10080628093D9
:10020000F1001092E4001092ED00ACC0803509F4CA
:10021000BAC0883509F4CCC0883409F034C1A7C00D
:10022000883909F4F2C0A8F4883709F4CFC038F44B
:10023000883609F4CBC0803709F4D1C024C188388E
:1002400009F4E3C0803909F4D2C0803809F01BC139
:10025000CEC0803B09F4E5C030F4803A49F1883AD9
:1002600009F4E8C010C1803C09F4FDC0883C09F4E1
:10027000FAC0883B09F4E4C006C18091F1008160B6
:1002800079C09091F1009C708091E80091110AC0B2
:1002900007C09091F1009C708091E800983011F4B3
:1002A000816001C08E7F8093E8008091E80083B96F
:1002B00085ECD7C08091F1008C70843071F4E091AE
:1002C000E400F0E0EB51FF4F808183B98091E400BE
:1002D0008F5F8093E40085EC86BF8091F1008C7085
:1002E000883009F0D0C0E091ED002BC08091F10082
:1002F0008C708430D1F4E091E4008091EE00E8133A
:1003000008C085ED86BFE0916400F0916500099515
:100310000CC0F0E0EB51FF4F808183B98091E40085
:100320008F5F8093E40085EC86BF8091F1008C7034
:10033000883009F0A8C0E091ED008091EA00E8174C
:1003400089F0F0E0E551FF4F808183B98091ED00A5
:100350008F5F8093ED00ACCF8091F100826080933D
:10036000F1002DC085EE7DC08091E40017C0809122
:10037000F10080618093F10085ED86BFE09160001F
:10038000F09161007FC08091E40093B1E82FF0E02C
:10039000EB51FF4F90838F5F8093E40090E00196D4
:1003A0002091EE0030E08217930709F081CF56C00C
:1003B00083B1E091E400F0E0EB51FF4F808385EDE5
:1003C00086BFE0916400F09165005CC08091F1000F
:1003D000806A8093F1001092E4001092ED00809109
:1003E000F10080648093F1001092EF0037C080919B
:1003F000EF0093B1E82FF0E0E051FF4F90838F5F63
:100400008093EF00811154CF29C083B1E091EF00B8
:10041000F0E0E051FF4F80838091F10087FF2CC016
:1004200029C08091F100806A8093F1001092E4006D
:100430001092ED001092EF008091E90083B90EC098
:10044000E091EF00EF5FE093EF00F0E0E751FF4F46
:10045000808183B98091EF00811102C085E801C0DD
:1004600081EC86BF10C08091F10087FF05C08F77B7
:100470008093F10085EE01C085EC86BFE0916200BB
:10048000F09163000995FF91EF91BF91AF919F911A
:100490008F917F916F915F914F913F912F910F902D
:1004A0000FBE0F901F9018958091F60080950895CB
:1004B000CF938091780080FD46C010928B00809190
:1004C0008E0083FF22C08091F900843A51F0909110
:1004D0008C00992321F090E00E942E0302C00E941C
:1004E000600380918C009091F2002091F500292BFF
:1004F0003091F300232B9091F6009823822F892BC3
:10050000C091F800C8238C2F1AC0C091F7009091B9
:10051000F2008091F500982B2091F300922B9C2300
:100520008091F6008C2340918C0020918C003091BA
:10053000F400C323C92B2823C227842389270E94C0
:10054000B4038C2F05C080918B0082700E94AB0297
:10055000CF910C946903813019F480917A00089549
:10056000823019F480917900089580E0089520E0A8
:1005700030E090E0D998AC01022E02C05595479525
:100580000A94E2F740FF02C0DA9A01C0DA98D99AD9
:100590002F5F3F4F2830310569F70895D8980E94A2
:1005A000B702DA98D89A0895E82F60E070E080E00A
:1005B000DB01A65EBE4F9C912C9130E00E2E02C056
:1005C000359527950A94E2F728703327A9015595A8
:1005D000479555954795292F30E00E2E02C0359549
:1005E00027950A94E2F721703327242B352BAB0192
:1005F000440F551F01C0220F4A95EAF7822B6F5F07
:100600007F4F64307105A1F60895CF93DF931F9259
:10061000CDB7DEB7198280E40E94CE02D89880EC74
:100620000E94B702198289818B3058F4E981F0E089
:10063000EB5DFE4F80810E94B70289818F5F8983C5
:10064000F2CFD89A83E00E94CE028091670088683A
:100650000E94CE020F90DF91CF910895F8942091DF
:100660002D0130912B012078FC018F3F910509F07D
:1006700090F4EF70FF27EC5AFF4FE4912E2B20935C
:100680002D013078FC01E07FFF2794E0F695E79597
:100690009A95E1F70DC0FF27EC5AFF4FE4912E2BFE
:1006A00020932D013078FC01EE27FF77EF2FFF27F5
:1006B000EC5AFF4FE491E32BE0932B0178940895DB
:1006C000E5E2F1E080858078808786818078868386
:1006D00008959091250180FF02C0916001C09E7F26
:1006E000909325019091250181FF02C0946001C083
:1006F0009B7F909325019091250182FF02C090611C
:1007000001C09F7E909325019091250183FF02C037
:10071000906401C09F7B909325019091260184FFF6
:1007200002C0916001C09E7F9093260190912701A5
:1007300085FF02C0916001C09E7F90932701909138
:10074000270186FF02C0946001C09B7F9093270120
:100750009091270187FF03C0892F806102C0892FF4
:100760008F7E8093270108959091250180FF02C01C
:10077000926001C09D7F909325019091250181FF9A
:1007800002C0986001C0977F909325019091250148
:1007900082FF02C0906201C09F7D909325019091DD
:1007A000250183FF02C0906801C09F7790932501C7
:1007B0009091260184FF02C0926001C09D7F9093BA
:1007C00026019091270185FF02C0926001C09D7FA4
:1007D000909327019091270186FF02C0986001C085
:1007E000977F909327019091270187FF03C0892F5E
:1007F000806202C0892F8F7D809327010895CF9357
:10080000DF93C0918A00C33008F061C0D0E0D8986F
:1008100082E40E94B702D29840E050E0A1E0B0E04C
:1008200085E08C9FB0018D9F700D112465587F4F1E
:1008300020E030E080E00000D998000000000000D7
:100840000000FD01022E01C0EE0F0A94EAF7CA9BD8
:1008500003C08E2B000002C0E0958E230000D99AC1
:1008600000000000000000000000000000002F5FFA
:100870003F4F28303105F9F6FB01E40FF51F808367
:100880004F5F5F4F4530510599F6DA98D29AD89A62
:10089000D99880918A0095E0899FF0011124E5584C
:1008A000FF4F9081947261F49181947249F4928126
:1008B000947231F49381947219F49481947219F0C2
:1008C00010928A001FC08F5F80938A001BC0109215
:1008D0008A0080E090E0FC01E558FF4F708165815F
:1008E000458152852081328567234523462B32235B
:1008F000242F232BFC01E65EFE4F208301968530DA
:10090000910549F7DF91CF910895843031F0863019
:1009100039F0823049F480E001C081E00C94D402C7
:1009200080911E018271089580E00895FF920F93D7
:100930001F93CF93DF93F82E0E948504CF2DD0E034
:10094000FE01E35EFE4F81110AC0108284E0F812BE
:100950001AC00E945402FE01E25EFE4F11C0908157
:10096000891789F080838E01025E1E4FF801908105
:1009700089278083F4E0FF1206C00E945402F80128
:10098000908189238083C25EDE4F8881DF91CF9181
:100990001F910F91FF90089584E68093380186EFB0
:1009A0008DBD8BE38CBD8EB583608EBD86E082BF2E
:1009B00083B7836083BF89B7856089BF0895CF936C
:1009C000DF9300D0CDB7DEB79A83898389819A817E
:1009D000892B79F0F89410923F0110923E0178949F
:1009E00020913E0130913F0189819A812817390772
:1009F000B9F70F900F90DF91CF9108951F920F924A
:100A00000FB60F9211242F933F934F935F936F93E1
:100A10007F938F939F93AF93BF93EF93FF9386EF53
:100A20008DBD8BE38CBD80913B018F5F80933B013B
:100A30008C3038F010923B0180918B008095809330
:100A40008B0080913A018F5F80933A01823308F4E2
:100A500067C010923A0180918C00809580938C0041
:100A6000809130018F5F809330018E3178F1109248
:100A7000300180918E00816080938E0080918E0085
:100A80008F7D80938E00809131018F5F8093310143
:100A9000803F70F010923101809133018F5F80931D
:100AA000330180913301893118F088E1809333015B
:100AB000809132018F5F809332018A3038F010923A
:100AC000320180918E008F7B80938E0080918E000A
:100AD00083FF0EC0809134018F5F80933401863094
:100AE00038F01092340180918E00877F80938E00C1
:100AF00080918E0084FF14C090918C0080912E0113
:100B000090FB80F980932E010E94AB00882341F076
:100B100090918C0080912E0190FB81F980932E01A1
:100B200080918E0081FD11C00E9458020E94AB008E
:100B300090918C00892349F080918E0083FD05C03F
:100B40000E94AB0090E00E942E0378940E9405035F
:100B50000E94FF03F89480911E0184FF0DC08091D4
:100B600035019091360101969093360180933501BD
:100B70008C32914058F432C082E00E948504811189
:100B8000EECF109236011092350128C080911E01DF
:100B900084FF12C08091350190913601843F9140CD
:100BA000E8F0109236011092350190918E0082E0AB
:100BB000892780938E0012C0109236011092350161
:100BC00080918E00846080938E0080918E008E7F55
:100BD00080938E00109230011092310186E00E94C5
:100BE000960484FF1BC084E00E9485048823A1F042
:100BF000809139018F5F809339018091390184366A
:100C000068F01092390184E00E9485049091680098
:100C100089278093680002C01092390180918E006C
:100C200081FF3DC084E00E948504811104C0809151
:100C30001E0181FF2FC0809137018F5F80933701A4
:100C40009091370180913801981778F084E00E94E4
:100C50008504882351F01092370189E08093380190
:100C600080918E00806880938E00809137018F3F45
:100C7000B1F490911E019695917080911E0182951C
:100C80008170891760F490918D0088E089278093A6
:100C90008D0005C01092370184E680933801809161
:100CA0002F01CB9B02C08E7F01C0816080932F01FA
:100CB00080918D0080918D00FF91EF91BF91AF9158
:100CC0009F918F917F916F915F914F913F912F9164
:100CD0000F900FBE0F901F9018951F920F920FB696
:100CE0000F9211248F939F9386E082BF80913E01E3
:100CF00090913F01019690933F0180933E01809136
:100D00003C018F5F80933C018A3F31F492B380E4D1
:100D1000892782BB10923C0180913D018F5F8093B7
:100D20003D018A3F31F492B380E2892782BB109261
:100D30003D019F918F910F900FBE0F901F901895BE
:100D4000FC019FEF81E3615060F02191922728E040
:100D500097FF03C0990F982701C0990F2150C1F741
:100D6000F2CF892F8F77089581B3846681BB82B3D8
:100D70008B7982BB83E089B910BC1BB888E08AB943
:100D800086E880BD0895E8E4F1E0108261839383F2
:100D90008283FC0180818CB9569A08951F920F922C
:100DA0000FB60F9211242F933F934F935F936F933E
:100DB0007F938F939F93AF93BF93CF93EF93FF93C3
:100DC0008BB1CCB18C7109F060C080914D018F5F07
:100DD00080934D0180918F00813829F080918F00A0
:100DE000883809F049C080918F008138E1F59091F1
:100DF000900080914001981329C062E08FE890E054
:100E00000E94A00610924D0110928F001092900047
:100E10008C133BC08091E1008F5F8093E1008530AF
:100E200030F01092E1001092E0001092DF0010927A
:100E3000E3001092E20080912D018F7780932D01C5
:100E400080918D00846080938D001FC08C1303C03F
:100E5000C09390001AC010924D0110928F0081E053
:100E60008093900012C080918F00883871F01092AA
:100E70004D0110928F0009C0C13811F0C83819F423
:100E8000C0938F0002C010924D01FF91EF91CF915E
:100E9000BF91AF919F918F917F916F915F914F9192
:100EA0003F912F910F900FBE0F901F9018951F929A
:100EB0000F920FB60F9211248F939F93EF93FF938E
:100EC000809148018F5F8093480190914901891773
:100ED00010F056980AC080914801E0914A01F091C3
:100EE0004B01E80FF11D80818CB9FF91EF919F912B
:100EF0008F910F900FBE0F901F901895F894FFCF11
:100F0000B900B900B9000202FF3132333435363747
:040F100038390A0062
:00000001FF
