S00E00004D795F4D43552E737265630C
S11300000C9433000C9450000C9450000C94500049
S11300100C9450000C9450000C9450000C9450001C
S11300200C9450000C9495050C9450000C94040707
S11300300C9450000C945A070C9450000C94E30751
S11300400C9474000C9450000C9450000C94C50053
S11300500C9450003F065B4F666D7D077F6F7639C9
S1130060316E3777737911241FBECFE5D8E0DEBF38
S1130070CDBF10E0A0E6B0E0E8E1F0E102C00590F9
S11300800D92A037B107D9F721E0A0E7B0E001C095
S11300901D92A635B207E1F70E9452000C940A089B
S11300A00C9400002FEF83ED90E3215080409040AA
S11300B0E1F700C000000E9463050E944B070E9404
S11300C0B8000E94AE02789461E080E80E94D802F1
S11300D089E690E00E94DE0288EE93E00E947605B5
S11300E080E00E94C200F0CF1F920F920FB60F92D1
S11300F011242F933F938F939F9324B135B1809113
S1130100700090917100820F931F909371008093FF
S113011070008091720081508093720081110FC031
S11301203398809170009091710024E096958795A2
S11301302A95E1F7909371008093700001C0369A7C
S11301409F918F913F912F910F900FBE0F901F9011
S113015018959C9B05C081E0809367008EEA089502
S113016080916600809367008091730008950895DC
S113017085B3836085BB84B38C7F84BB88E480B9FA
S113018011B808958093F40008951F920F920FB64A
S11301900F9211242F933F934F935F936F937F9309
S11301A08F939F93AF93BF93EF93FF9381B1887F16
S11301B0803609F426C1A0F5883209F49BC090F476
S11301C0803109F467C038F4882309F457C08830B3
S11301D009F458C06CC1883109F46DC0803209F447
S11301E0D1C065C1803409F4C6C080F4803309F4F9
S11301F0BAC0883309F05BC18091F40080628093B7
S1130200F4001092E3001092EB00B3C0803509F4BF
S1130210C5C0883509F4DBC0883409F048C1B2C0D0
S1130220883909F404C1A8F4883709F4E1C038F422
S1130230883609F4DDC0803709F4E3C038C1883852
S113024009F4F5C0803909F4E4C0803809F02FC1FD
S1130250E0C0803B09F4F7C038F4803A09F401C1E6
S1130260883A09F4F9C023C1803C09F40EC1883CE2
S113027009F40BC1883B09F4F6C019C18091F4005C
S1130280816083C09091F4009C708091E40091118E
S113029008C00FC09091F4009C708091E4009830E5
S11302A041F08E7F8093E4008091E40083B985E877
S11302B0EAC08160F7CF8091F4008C70843089F4B7
S11302C08091E300E091ED00F091EE00E80FF11D64
S11302D0808183B98091E3008F5F8093E30085E898
S11302E086BF8091F4008C70883009F0E0C0E09102
S11302F0EB002EC08091F4008C708430E9F480917E
S1130300E3009091EF00891308C085E986BFE0916E
S11303106400F091650009950FC0E091ED00F09143
S1130320EE00E80FF11D808183B98091E3008F5FB7
S11303308093E30085E886BF8091F4008C70883058
S113034009F0B5C0E091EB008091E800E81789F06E
S1130350F0E0E751FF4F808183B98091EB008F5F1C
S11303608093EB00A4CF8091F40082608093F4002A
S113037038C085EA88C09091E3008091EF0098131B
S113038070C095CF8091F40080618093F40085E97A
S113039086BFE0916000F091610088C083B19091C4
S11303A0E300E091ED00F091EE00E90FF11D808390
S11303B08091E3008F5F8093E30090E001962091A9
S11303C0EF0030E08217930709F04BC070CF83B180
S11303D09091E300E091ED00F091EE00E90FF11D42
S11303E0808385E986BFE0916400F09165005EC07A
S11303F08091F400806A8093F4001092E3001092DC
S1130400EB008091F40080648093F4001092F0007B
S113041028C08091F00093B1E82FF0E0EF50FF4F37
S113042090838F5F8093F0008230D9F440CF83B102
S1130430E091F000F0E0EF50FF4F80838091F400F2
S113044087FF2EC02BC08091F400806A8093F40053
S11304501092E3001092EB001092F0008091E500FE
S113046083B985EC10C0E091F000EF5FE093F000F9
S1130470F0E0EB51FF4F808183B98091F00082302E
S113048009F415CF81EC86BF12C08091F40087FF78
S113049007C08091F4008F778093F40085EE01C04B
S11304A085EC86BFE0916200F09163000995FF91AD
S11304B0EF91BF91AF919F918F917F916F915F91D8
S11304C04F913F912F910F900FBE0F901F90189551
S11304D09091F40096FD18C01092E3005093EE0042
S11304E04093ED008093E4006093EC002093EF00D0
S11304F084E08093F40085EA86BF8091F4008064F0
S11305008093F40081E0089580E00895807F611174
S1130510816080937400982F946090937500809309
S1130520760023E044E750E060E080E70C94680242
S1130530CF93DF93C82FD62F0E9486026D2F8C2F66
S11305408295807FDF91CF910C94860260E081E0F8
S11305500E94980284E090E00C9476058AEF90E083
S11305600E94760560E083E00E94980285E090E0B6
S11305700E94760560E083E00E94980285E090E0A6
S11305800E94760560E083E00E94980281E090E09A
S11305900E94760560E082E00E94980260E088E2B2
S11305A00E94980260E08CE00E9498020C94A602DB
S11305B0962F815060E0890F0C949802CF93DF93BB
S11305C0EC018991882321F061E00E949802F9CF1F
S11305D0DF91CF9108958091F90080950895CF938C
S11305E08091770080FD46C010928A0080918D0032
S11305F083FF22C08091FC00843A51F090918B00DB
S1130600992321F090E00E94C50302C00E94F703E1
S113061080918B009091F5002091F800292B309166
S1130620F600232B9091F9009823822F892BC091F7
S1130630FB00C8238C2F1AC0C091FA009091F500DA
S11306408091F800982B2091F600922B9C238091A6
S1130650F9008C2340918B0020918B003091F7009E
S1130660C323C92B2823C227842389270E944B0430
S11306708C2F05C080918A0082700E944203CF9122
S11306800C940004813019F480917900089582302B
S113069019F480917800089580E0089520E030E016
S11306A090E0D998AC01022E02C0559547950A9462
S11306B0E2F740FF02C0DA9A01C0DA98D99A2F5FB4
S11306C03F4F2830310569F70895D8980E944E03AA
S11306D0DA98D89A0895E82F60E070E080E0DB01B2
S11306E0A35EBE4F9C912C9130E00E2E02C0359536
S11306F027950A94E2F728703327A9015595479561
S113070055954795292F30E00E2E02C03595279533
S11307100A94E2F721703327242B352BAB01440FC5
S1130720551F01C0220F4A95EAF7822B6F5F7F4F56
S113073064307105A1F60895CF93DF931F92CDB76E
S1130740DEB7198280E40E946503D89880EC0E9489
S11307504E03198289818B3058F4E981F0E0E85D19
S1130760FE4F80810E944E0389818F5F8983F2CF7F
S1130770D89A83E00E9465038091670088680E948C
S113078065030F90DF91CF910895F8942091300183
S113079030912E012078FC018F3F910509F090F4EF
S11307A0EF70FF27EC5AFF4FE4912E2B209330017A
S11307B03078FC01E07FFF2794E0F695E7959A9561
S11307C0E1F70DC0FF27EC5AFF4FE4912E2B209345
S11307D030013078FC01EE27FF77EF2FFF27EC5A2A
S11307E0FF4FE491E32BE0932E0178940895E8E21F
S11307F0F1E080858078808786818078868308957B
S11308009091280180FF02C0916001C09E7F909367
S113081028019091280181FF02C0946001C09B7F50
S1130820909328019091280182FF02C0906101C039
S11308309F7E909328019091280183FF02C09064C9
S113084001C09F7B909328019091290184FF02C0ED
S1130850916001C09E7F9093290190912A0185FFA8
S113086002C0916001C09E7F90932A0190912A0159
S113087086FF02C0946001C09B7F90932A019091EF
S11308802A0187FF03C0892F806102C0892F8F7ED0
S113089080932A0108959091280180FF02C09260FC
S11308A001C09D7F909328019091280181FF02C08F
S11308B0986001C0977F909328019091280182FF4E
S11308C002C0906201C09F7D9093280190912801FD
S11308D083FF02C0906801C09F7790932801909194
S11308E0290184FF02C0926001C09D7F9093290179
S11308F090912A0185FF02C0926001C09D7F909370
S11309002A0190912A0186FF02C0986001C0977F56
S113091090932A0190912A0187FF03C0892F806256
S113092002C0892F8F7D80932A010895CF93DF938E
S1130930C0918900C33008F061C0D0E0D89882E447
S11309400E944E03D29840E050E0A1E0B0E085E080
S11309508C9FB0018D9F700D112466587F4F20E04D
S113096030E080E00000D9980000000000000000A2
S1130970FD01022E01C0EE0F0A94EAF7CA9B03C0E0
S11309808E2B000002C0E0958E230000D99A00004F
S11309900000000000000000000000002F5F3F4F37
S11309A028303105F9F6FB01E40FF51F80834F5F12
S11309B05F4F4530510599F6DA98D29AD89AD9986A
S11309C08091890095E0899FF0011124E658FF4F3A
S11309D09081947261F49181947249F49281947239
S11309E031F49381947219F49481947219F01092F1
S11309F089001FC08F5F809389001BC010928900FB
S1130A0080E090E0FC01E658FF4F708165814581EC
S1130A1052852081328567234523462B3223242F98
S1130A20232BFC01E35EFE4F208301968530910564
S1130A3049F7DF91CF910895843031F0863039F051
S1130A40823049F480E001C081E00C946B03809112
S1130A5021018271089580E00895FF920F931F93FE
S1130A60CF93DF93F82E0E941C05CF2DD0E0FE011A
S1130A70E05EFE4F81110AC0108284E0F8121AC0B1
S1130A800E94EB02FE01EF5DFE4F11C090818917B9
S1130A9089F080838E010F5D1E4FF80190818927B4
S1130AA08083F4E0FF1206C00E94EB02F8019081FB
S1130AB089238083CF5DDE4F8881DF91CF911F91A1
S1130AC00F91FF90089584E680933B0186EF8DBDDE
S1130AD08BE38CBD8EB583608EBD86E082BF83B709
S1130AE0836083BF89B7856089BF0895CF93DF93FF
S1130AF000D0CDB7DEB79A83898389819A81892B07
S1130B0079F0F89410924201109241017894209166
S1130B1041013091420189819A8128173907B9F737
S1130B200F900F90DF91CF9108951F920F920FB6FF
S1130B300F9211242F933F934F935F936F937F935F
S1130B408F939F93AF93BF93EF93FF9386EF8DBDE6
S1130B508BE38CBD80913E018F5F80933E018C308E
S1130B6038F010923E0180918A00809580938A002B
S1130B7080913D018F5F80933D01823308F467C00B
S1130B8010923D0180918B00809580938B00809121
S1130B9033018F5F809333018E3178F110923301EA
S1130BA080918D00816080938D0080918D008F7D78
S1130BB080938D00809134018F5F80933401803F56
S1130BC070F010923401809136018F5F809336016A
S1130BD080913601893118F088E180933601809143
S1130BE035018F5F809335018A3038F010923501DA
S1130BF080918D008F7B80938D0080918D0083FF89
S1130C000EC0809137018F5F80933701863038F0B2
S1130C101092370180918D00877F80938D008091A1
S1130C208D0084FF14C090918B008091310190FB62
S1130C3080F9809331010E94A900882341F09091AA
S1130C408B008091310190FB81F980933101809177
S1130C508D0081FD11C00E94EF020E94A9009091B5
S1130C608B00892349F080918D0083FD05C00E948B
S1130C70A90090E00E94C50378940E949C030E94FE
S1130C809604F8948091210184FF0DC0809138016D
S1130C9090913901019690933901809338018C32F7
S1130CA0914058F432C082E00E941C058111EECFBD
S1130CB0109239011092380128C08091210184FFDB
S1130CC012C08091380190913901843F9140E8F03D
S1130CD0109239011092380190918D0082E0892799
S1130CE080938D0012C010923901109238018091C6
S1130CF08D00846080938D0080918D008E7F809321
S1130D008D00109233011092340186E00E942D056B
S1130D1084FF1BC084E00E941C058823A1F08091FD
S1130D203C018F5F80933C0180913C01843668F0E4
S1130D3010923C0184E00E941C0590916800892770
S1130D408093680002C010923C0180918D0081FF65
S1130D503DC084E00E941C05811104C080912101E2
S1130D6081FF2FC080913A018F5F80933A01909167
S1130D703A0180913B01981778F084E00E941C05A9
S1130D80882351F010923A0189E080933B018091CD
S1130D908D00806880938D0080913A018F3FB1F47B
S1130DA09091210196959170809121018295817095
S1130DB0891760F490918C0088E0892780938C00D7
S1130DC005C010923A0184E680933B018091320180
S1130DD0CB9B02C08E7F01C08160809332018091E1
S1130DE08C0080918C00FF91EF91BF91AF919F9106
S1130DF08F917F916F915F914F913F912F910F90C0
S1130E000FBE0F901F9018951F920F920FB60F925E
S1130E1011248F939F9386E082BF8091410190912A
S1130E2042010196909342018093410180913F01D8
S1130E308F5F80933F018A3F31F492B380E4892726
S1130E4082BB10923F01809140018F5F80934001EB
S1130E508A3F31F492B380E2892782BB1092400129
S1130E609F918F910F900FBE0F901F901895FC01CA
S1130E709FEF81E3615060F02191922728E097FF72
S1130E8003C0990F982701C0990F2150C1F7F2CFE1
S1130E90892F8F77089581B3846681BB82B38B7960
S1130EA082BB83E089B910BC1BB888E08AB986E8A4
S1130EB080BD08951F920F920FB60F9211242F93A5
S1130EC03F934F935F936F937F938F939F93AF93CE
S1130ED0BF93CF93EF93FF938BB1CCB18C7109F097
S1130EE060C0809150018F5F8093500180918E008B
S1130EF0813829F080918E00883809F049C08091AA
S1130F008E008138E1F590918F0080914301981310
S1130F1029C062E08EE890E00E94370710925001E9
S1130F2010928E0010928F008C133BC08091E000D1
S1130F308F5F8093E000853030F01092E0001092D3
S1130F40DF001092DE001092E2001092E100809126
S1130F5030018F778093300180918C00846080937E
S1130F608C001FC08C1303C0C0938F001AC0109252
S1130F70500110928E0081E080938F0012C0809106
S1130F808E00883871F01092500110928E0009C0C2
S1130F90C13811F0C83819F4C0938E0002C0109201
S1130FA05001FF91EF91CF91BF91AF919F918F919C
S1130FB07F916F915F914F913F912F910F900FBE51
S1130FC00F901F9018951F920F920FB60F92112435
S1130FD08F939F93EF93FF9380914B018F5F809347
S1130FE04B0190914C01891710F056980AC08091DA
S1130FF04B01E0914D01F0914E01E80FF11D80810C
S11310008CB9FF91EF919F918F910F900FBE0F902C
S10B10101F901895F894FFCF1E
S1131018B700B700B7000202FF3132333435360067
S9030000FC
