S00E00004D795F4D43552E737265630C
S11300000C9433000C9450000C9450000C94500049
S11300100C9450000C9450000C9450000C9450001C
S11300200C9450000C9482050C9450000C94F1062E
S11300300C9450000C9447070C9450000C94D00777
S11300400C9474000C9450000C9450000C94C50053
S11300500C9450003F065B4F666D7D077F6F7639C9
S1130060316E3777737911241FBECFE5D8E0DEBF38
S1130070CDBF10E0A0E6B0E0E2EFFFE002C00590E3
S11300800D92AA36B107D9F721E0AAE6B0E001C083
S11300901D92A035B207E1F70E9452000C94F707B5
S11300A00C9400002FEF83ED90E3215080409040AA
S11300B0E1F700C000000E9450050E9438070E942A
S11300C0B8000E94A60278940E94D40288EE93E0BD
S11300D00E9463050E94D00288EE93E00E946305AB
S11300E08FEB0E94C200F0CF1F920F920FB60F92B7
S11300F011242F933F938F939F9324B135B1809113
S11301006A0090916B00820F931F90936B00809311
S11301106A0080916C00815080936C0081110FC043
S1130120339880916A0090916B0024E096958795AE
S11301302A95E1F790936B0080936A0001C0369A88
S11301409F918F913F912F910F900FBE0F901F9011
S113015018959C9B05C081E0809367008EEA089502
S1130160809166008093670080916D0008950895E2
S113017085B3836085BB84B38C7F84BB88E480B9FA
S113018011B808958093EE0008951F920F920FB650
S11301900F9211242F933F934F935F936F937F9309
S11301A08F939F93AF93BF93EF93FF9381B1887F16
S11301B0803609F426C1A0F5883209F49BC090F476
S11301C0803109F467C038F4882309F457C08830B3
S11301D009F458C06AC1883109F46DC0803209F449
S11301E0D1C063C1803409F4C6C080F4803309F4FB
S11301F0BAC0883309F059C18091EE0080628093BF
S1130200EE001092DD001092E500B3C0803509F4D1
S1130210C5C0883509F4DBC0883409F046C1B2C0D2
S1130220883909F404C1A8F4883709F4E1C038F422
S1130230883609F4DDC0803709F4E3C036C1883854
S113024009F4F5C0803909F4E4C0803809F02DC1FF
S1130250E0C0803B09F4F7C038F4803A09F401C1E6
S1130260883A09F4F9C021C1803C09F40EC1883CE4
S113027009F40BC1883B09F4F6C017C18091EE0064
S1130280816083C09091EE009C708091DE0091119A
S113029008C00FC09091EE009C708091DE009830F1
S11302A041F08E7F8093DE008091DE0083B985E883
S11302B0EAC08160F7CF8091EE008C70843089F4BD
S11302C08091DD00E091E700F091E800E80FF11D76
S11302D0808183B98091DD008F5F8093DD0085E8A4
S11302E086BF8091EE008C70883009F0DEC0E0910A
S11302F0E5002EC08091EE008C708430E9F480918A
S1130300DD009091E900891308C085E986BFE0917A
S11303106400F091650009950FC0E091E700F09149
S1130320E800E80FF11D808183B98091DD008F5FC3
S11303308093DD0085E886BF8091EE008C70883064
S113034009F0B3C0E091E5008091E200E81789F07C
S1130350F0E0ED51FF4F808183B98091E5008F5F1C
S11303608093E500A4CF8091EE0082608093EE003C
S113037038C085EA88C09091DD008091E900981327
S113038070C095CF8091EE0080618093EE0085E986
S113039086BFE0916000F091610086C083B19091C6
S11303A0DD00E091E700F091E800E90FF11D8083A2
S11303B08091DD008F5F8093DD0090E001962091B5
S11303C0E90030E08217930709F04BC070CF83B186
S11303D09091DD00E091E700F091E800E90FF11D54
S11303E0808385E986BFE0916400F09165005CC07C
S11303F08091EE00806A8093EE001092DD001092EE
S1130400E5008091EE0080648093EE001092EA0093
S113041028C08091EA0093B1E82FF0E0E551FF4F46
S113042090838F5F8093EA008230D9F440CF83B108
S1130430E091EA00F0E0E551FF4F80838091EE0007
S113044087FF2CC029C08091EE00806A8093EE0063
S11304501092DD001092E5001092EA008091DF0016
S113046083B985EC10C0E091EA00EF5FE093EA0005
S1130470F0E0E152FF4F808183B98091EA0082303D
S113048009F415CF81EC86BF10C08091EE0087FF80
S113049005C08F778093EE0085EE01C085EC86BFA2
S11304A0E0916200F09163000995FF91EF91BF9193
S11304B0AF919F918F917F916F915F914F913F91F8
S11304C02F910F900FBE0F901F9018959091EE00F2
S11304D096FD18C01092DD005093E8004093E700A9
S11304E08093DE006093E6002093E90084E080932B
S11304F0EE0085EA86BF8091EE0080648093EE0072
S113050081E0089580E00895807F61118160809387
S11305106E0021E04EE650E060E080E70C94660255
S1130520CF93DF93C82FD62F0E9484026D2F8C2F78
S11305308295807FDF91CF910C94840260E081E00A
S11305400E94900284E090E00C9463058AEF90E0AE
S11305500E94630560E083E00E94900285E090E0E1
S11305600E94630560E083E00E94900285E090E0D1
S11305700E94630560E083E00E94900281E090E0C5
S11305800E94630560E082E00E94900260E088E2DD
S11305900E94900260E08CE00E9490020C949E0203
S11305A061E08FEF0C94900261E080E00C94900283
S11305B08091F30080950895CF938091710080FD20
S11305C046C0109284008091870083FF22C08091EE
S11305D0F600843A51F090918500992321F090E03F
S11305E00E94B20302C00E94E403809185009091AE
S11305F0EF002091F200292B3091F000232B9091F1
S1130600F3009823822F892BC091F500C8238C2FE7
S11306101AC0C091F4009091EF008091F200982BE1
S11306202091F000922B9C238091F3008C23409125
S11306308500209185003091F100C323C92B282324
S1130640C227842389270E9438048C2F05C08091F7
S1130650840082700E942F03CF910C94ED038130AB
S113066019F4809173000895823019F48091720016
S1130670089580E0089520E030E090E0D998AC013E
S1130680022E02C0559547950A94E2F740FF02C036
S1130690DA9A01C0DA98D99A2F5F3F4F2830310592
S11306A069F70895D8980E943B03DA98D89A089578
S11306B0E82F60E070E080E0DB01A95EBE4F9C9112
S11306C02C9130E00E2E02C0359527950A94E2F75E
S11306D028703327A9015595479555954795292F96
S11306E030E00E2E02C0359527950A94E2F721706A
S11306F03327242B352BAB01440F551F01C0220F88
S11307004A95EAF7822B6F5F7F4F64307105A1F63B
S11307100895CF93DF931F92CDB7DEB7198280E49B
S11307200E945203D89880EC0E943B03198289816D
S11307308B3058F4E981F0E0EE5DFE4F80810E9439
S11307403B0389818F5F8983F2CFD89A83E00E942B
S113075052038091670088680E9452030F90DF91D2
S1130760CF910895F89420912A013091280120789E
S1130770FC018F3F910509F090F4EF70FF27EC5ACC
S1130780FF4FE4912E2B20932A013078FC01E07F67
S1130790FF2794E0F695E7959A95E1F70DC0FF27BA
S11307A0EC5AFF4FE4912E2B20932A013078FC0160
S11307B0EE27FF77EF2FFF27EC5AFF4FE491E32B4F
S11307C0E093280178940895E2E2F1E0808580784E
S11307D0808786818078868308959091220180FFA6
S11307E002C0916001C09E7F9093220190912201EA
S11307F081FF02C0946001C09B7F9093220190917D
S1130800220182FF02C0906101C09F7E9093220169
S11308109091220183FF02C0906401C09F7B90935A
S113082022019091230184FF02C0916001C09E7F48
S1130830909323019091240185FF02C0916001C02F
S11308409E7F909324019091240186FF02C09460BE
S113085001C09B7F909324019091240187FF03C0E2
S1130860892F806102C0892F8F7E8093240108958F
S11308709091220180FF02C0926001C09D7F9093FD
S113088022019091220181FF02C0986001C0977FEC
S1130890909322019091220182FF02C0906201C0D4
S11308A09F7D909322019091220183FF02C0906862
S11308B001C09F77909322019091230184FF02C08D
S11308C0926001C09D7F909323019091240185FF44
S11308D002C0926001C09D7F9093240190912401F5
S11308E086FF02C0986001C0977F90932401909185
S11308F0240187FF03C0892F806202C0892F8F7D66
S1130900809324010895CF93DF93C0918300C33073
S113091008F061C0D0E0D89882E40E943B03D298EA
S113092040E050E0A1E0B0E085E08C9FB0018D9FF5
S1130930700D11246C587F4F20E030E080E00000FF
S1130940D9980000000000000000FD01022E01C043
S1130950EE0F0A94EAF7CA9B03C08E2B000002C074
S1130960E0958E230000D99A0000000000000000EA
S11309700000000000002F5F3F4F28303105F9F6DA
S1130980FB01E40FF51F80834F5F5F4F4530510536
S113099099F6DA98D29AD89AD9988091830095E0FA
S11309A0899FF0011124EC58FF4F9081947261F4F7
S11309B09181947249F49281947231F49381947286
S11309C019F49481947219F0109283001FC08F5F00
S11309D0809383001BC01092830080E090E0FC01B0
S11309E0EC58FF4F708165814581528520813285A5
S11309F067234523462B3223242F232BFC01E95E56
S1130A00FE4F208301968530910549F7DF91CF9100
S1130A100895843031F0863039F0823049F480E032
S1130A2001C081E00C94580380911B0182710895E8
S1130A3080E00895FF920F931F93CF93DF93F82ED6
S1130A400E940905CF2DD0E0FE01E65EFE4F811124
S1130A500AC0108284E0F8121AC00E94D802FE0173
S1130A60E55EFE4F11C09081891789F080838E0165
S1130A70055E1E4FF801908189278083F4E0FF1200
S1130A8006C00E94D802F801908189238083C55E44
S1130A90DE4F8881DF91CF911F910F91FF900895D0
S1130AA084E68093350186EF8DBD8BE38CBD8EB5D6
S1130AB083608EBD86E082BF83B7836083BF89B7BE
S1130AC0856089BF0895CF93DF9300D0CDB7DEB79B
S1130AD09A83898389819A81892B79F0F894109279
S1130AE03C0110923B01789420913B0130913C01F0
S1130AF089819A8128173907B9F70F900F90DF91F0
S1130B00CF9108951F920F920FB60F9211242F9335
S1130B103F934F935F936F937F938F939F93AF9381
S1130B20BF93EF93FF9386EF8DBD8BE38CBD8091D4
S1130B3038018F5F809338018C3038F0109238017F
S1130B4080918400809580938400809137018F5F29
S1130B5080933701823308F467C010923701809183
S1130B60850080958093850080912D018F5F80930F
S1130B702D018E3178F110922D01809187008160D2
S1130B8080938700809187008F7D80938700809178
S1130B902E018F5F80932E01803F70F010922E0102
S1130BA0809130018F5F80933001809130018931D1
S1130BB018F088E18093300180912F018F5F80933A
S1130BC02F018A3038F010922F01809187008F7B9B
S1130BD0809387008091870083FF0EC0809131014C
S1130BE08F5F80933101863038F01092310180910B
S1130BF08700877F809387008091870084FF14C0DB
S1130C009091850080912B0190FB80F980932B01BA
S1130C100E94A900882341F09091850080912B01C6
S1130C2090FB81F980932B018091870081FD11C095
S1130C300E94DC020E94A90090918500892349F05A
S1130C408091870083FD05C00E94A90090E00E9466
S1130C50B20378940E9489030E948304F8948091DB
S1130C601B0184FF0DC080913201909133010196E4
S1130C7090933301809332018C32914058F432C006
S1130C8082E00E9409058111EECF10923301109287
S1130C90320128C080911B0184FF12C0809132016F
S1130CA090913301843F9140E8F010923301109207
S1130CB032019091870082E089278093870012C0D7
S1130CC010923301109232018091870084608093E6
S1130CD08700809187008E7F8093870010922D017A
S1130CE010922E0186E00E941A0584FF1BC084E046
S1130CF00E9409058823A1F0809136018F5F8093BB
S1130D00360180913601843668F01092360184E011
S1130D100E9409059091680089278093680002C0A9
S1130D20109236018091870081FF3DC084E00E94CB
S1130D300905811104C080911B0181FF2FC080919E
S1130D4034018F5F80933401909134018091350197
S1130D50981778F084E00E940905882351F01092D6
S1130D60340189E080933501809187008068809305
S1130D708700809134018F3FB1F490911B019695C7
S1130D80917080911B0182958170891760F4909114
S1130D90860088E089278093860005C0109234017C
S1130DA084E68093350180912C01CB9B02C08E7F19
S1130DB001C0816080932C0180918600809186001F
S1130DC0FF91EF91BF91AF919F918F917F916F911F
S1130DD05F914F913F912F910F900FBE0F901F90F5
S1130DE018951F920F920FB60F9211248F939F9311
S1130DF086E082BF80913B0190913C0101969093E3
S1130E003C0180933B01809139018F5F80933901CC
S1130E108A3F31F492B380E4892782BB109239016E
S1130E2080913A018F5F80933A018A3F31F492B303
S1130E3080E2892782BB10923A019F918F910F9093
S1130E400FBE0F901F901895FC019FEF81E3615036
S1130E5060F02191922728E097FF03C0990F98270B
S1130E6001C0990F2150C1F7F2CF892F8F770895D0
S1130E7081B3846681BB82B38B7982BB83E089B9F9
S1130E8010BC1BB888E08AB986E880BD08951F921B
S1130E900F920FB60F9211242F933F934F935F93AA
S1130EA06F937F938F939F93AF93BF93CF93EF935E
S1130EB0FF938BB1CCB18C7109F060C080914A0171
S1130EC08F5F80934A0180918800813829F0809156
S1130ED08800883809F049C0809188008138E1F59C
S1130EE09091890080913D01981329C062E088E8BF
S1130EF090E00E94240710924A01109288001092F8
S1130F0089008C133BC08091DA008F5F8093DA00F4
S1130F10853030F01092DA001092D9001092D80087
S1130F201092DC001092DB0080912A018F7780936D
S1130F302A01809186008460809386001FC08C13F0
S1130F4003C0C09389001AC010924A01109288000D
S1130F5081E08093890012C080918800883871F004
S1130F6010924A011092880009C0C13811F0C838A3
S1130F7019F4C093880002C010924A01FF91EF91C6
S1130F80CF91BF91AF919F918F917F916F915F911D
S1130F904F913F912F910F900FBE0F901F90189576
S1130FA01F920F920FB60F9211248F939F93EF937A
S1130FB0FF93809145018F5F809345019091460195
S1130FC0891710F056980AC080914501E0914701B5
S1130FD0F0914801E80FF11D80818CB9FF91EF91E8
S1130FE09F918F910F900FBE0F901F901895F894BA
S1050FF0FFCF2D
S10D0FF2B700B700B7000202FF00C9
S9030000FC
