:100000000C9433000C9474000C9450000C94500029
:100010000C9450000C9450000C9450000C94500020
:100020000C9450000C948D050C9450000C94FC061C
:100030000C9450000C9452070C9450000C94DB0765
:100040000C9482000C9450000C9450000C94D0003E
:100050000C9450003F065B4F666D7D077F6F7639CD
:10006000316E3777737911241FBECFE5D8E0DEBF3C
:10007000CDBF10E0A0E6B0E0E8E0F0E102C00590FE
:100080000D92AA36B107D9F721E0AAE6B0E001C087
:100090001D92A135B207E1F70E9452000C940208AC
:1000A0000C9400008A98929A85B785BF8BB78064BC
:1000B0008BBF81E080936A0085B7806285BF85B77A
:1000C000806885BF7894889585B78F7785BF8BB713
:1000D0008F7B8BBF0E945B050E9443070E94C60076
:1000E0000E94B9027894FFCF1F920F920FB60F9221
:1000F0001124829B10926A00969A0F900FBE0F9067
:100100001F9018951F920F920FB60F9211242F93E4
:100110003F938F939F9324B135B180916B00909161
:100120006C00820F931F90936C0080936B00809102
:100130006D00815080936D0081110FC033988091C4
:100140006B0090916C0024E0969587952A95E1F7D5
:1001500090936C0080936B0001C0369A9F918F91B1
:100160003F912F910F900FBE0F901F9018959C9B61
:1001700005C081E0809367008EEA08958091660053
:100180008093670080916E000895089585B3836021
:1001900085BB84B38C7F84BB88E480B911B8089593
:1001A0001F920F920FB60F9211242F933F934F93EC
:1001B0005F936F937F938F939F93AF93BF93EF93CF
:1001C000FF9381B1887F803609F426C1A0F588327B
:1001D00009F49BC090F4803109F467C038F4882397
:1001E00009F457C0883009F458C06CC1883109F44B
:1001F0006DC0803209F4D1C065C1803409F4C6C035
:1002000080F4803309F4BAC0883309F05BC180916F
:10021000EF0080628093EF001092DE001092E60003
:10022000B3C0803509F4C5C0883509F4DBC0883413
:1002300009F048C1B2C0883909F404C1A8F488376C
:1002400009F4E1C038F4883609F4DDC0803709F4D8
:10025000E3C038C1883809F4F5C0803909F4E4C036
:10026000803809F02FC1E0C0803B09F4F7C038F4B2
:10027000803A09F401C1883A09F4F9C023C1803CED
:1002800009F40EC1883C09F40BC1883B09F4F6C09F
:1002900019C18091EF00816083C09091EF009C7044
:1002A0008091DF00911108C00FC09091EF009C7009
:1002B0008091DF00983041F08E7F8093DF00809145
:1002C000DF0083B985E8EAC08160F7CF8091EF0055
:1002D0008C70843089F48091DE00E091E800F09128
:1002E000E900E80FF11D808183B98091DE008F5F06
:1002F0008093DE0085E886BF8091EF008C708830A7
:1003000009F0E0C0E091E6002EC08091EF008C7013
:100310008430E9F48091DE009091EA00891308C0EE
:1003200085E986BFE0916400F091650009950FC0F2
:10033000E091E800F091E900E80FF11D808183B9B8
:100340008091DE008F5F8093DE0085E886BF80911C
:10035000EF008C70883009F0B5C0E091E600809124
:10036000E300E81789F0F0E0EC51FF4F808183B99A
:100370008091E6008F5F8093E600A4CF8091EF002C
:1003800082608093EF0038C085EA88C09091DE00DB
:100390008091EA00981370C095CF8091EF00806142
:1003A0008093EF0085E986BFE0916000F0916100E5
:1003B00088C083B19091DE00E091E800F091E900FF
:1003C000E90FF11D80838091DE008F5F8093DE0056
:1003D00090E001962091EA0030E08217930709F03F
:1003E0004BC070CF83B19091DE00E091E800F091B6
:1003F000E900E90FF11D808385E986BFE091640083
:10040000F09165005EC08091EF00806A8093EF00FC
:100410001092DE001092E6008091EF0080648093DD
:10042000EF001092EB0028C08091EB0093B1E82F11
:10043000F0E0E451FF4F90838F5F8093EB008230B8
:10044000D9F440CF83B1E091EB00F0E0E451FF4FED
:1004500080838091EF0087FF2EC02BC08091EF003A
:10046000806A8093EF001092DE001092E6001092F6
:10047000EB008091E00083B985EC10C0E091EB00C7
:10048000EF5FE093EB00F0E0E052FF4F808183B933
:100490008091EB00823009F415CF81EC86BF12C049
:1004A0008091EF0087FF07C08091EF008F778093E6
:1004B000EF0085EE01C085EC86BFE0916200F0910F
:1004C00063000995FF91EF91BF91AF919F918F913B
:1004D0007F916F915F914F913F912F910F900FBE40
:1004E0000F901F9018959091EF0096FD18C01092F4
:1004F000DE005093E9004093E8008093DF006093B2
:10050000E7002093EA0084E08093EF0085EA86BF4D
:100510008091EF0080648093EF0081E0089580E097
:100520000895807F6111816080936F00982F94609F
:10053000909370008093710023E04FE650E060E0FC
:1005400080E70C947302CF93DF93C82FD62F0E94BD
:1005500091026D2F8C2F8295807FDF91CF910C942B
:10056000910260E081E00E94A30284E090E00C949C
:100570006E058AEF90E00E946E0560E083E00E94C5
:10058000A30285E090E00E946E0560E083E00E9497
:10059000A30285E090E00E946E0560E083E00E9487
:1005A000A30281E090E00E946E0560E082E00E947C
:1005B000A30260E088E20E94A30260E08CE00E9457
:1005C000A3020C94B1028091F40080950895CF931A
:1005D0008091720080FD46C0109285008091880055
:1005E00083FF22C08091F700843A51F090918600F9
:1005F000992321F090E00E94BD0302C00E94EF0306
:10060000809186009091F0002091F300292B309189
:10061000F100232B9091F4009823822F892BC09115
:10062000F600C8238C2F1AC0C091F5009091F000FD
:100630008091F300982B2091F100922B9C238091C4
:10064000F4008C2340918600209186003091F200C6
:10065000C323C92B2823C227842389270E9443044C
:100660008C2F05C08091850082700E943A03CF9143
:100670000C94F803813019F480917400089582304D
:1006800019F480917300089580E0089520E030E02F
:1006900090E0D998AC01022E02C0559547950A9476
:1006A000E2F740FF02C0DA9A01C0DA98D99A2F5FC8
:1006B0003F4F2830310569F70895D8980E944603C6
:1006C000DA98D89A0895E82F60E070E080E0DB01C6
:1006D000A85EBE4F9C912C9130E00E2E02C0359545
:1006E00027950A94E2F728703327A9015595479575
:1006F00055954795292F30E00E2E02C03595279548
:100700000A94E2F721703327242B352BAB01440FD9
:10071000551F01C0220F4A95EAF7822B6F5F7F4F6A
:1007200064307105A1F60895CF93DF931F92CDB782
:10073000DEB7198280E40E945D03D89880EC0E94A5
:100740004603198289818B3058F4E981F0E0ED5D30
:10075000FE4F80810E94460389818F5F8983F2CF9B
:10076000D89A83E00E945D038091670088680E94A8
:100770005D030F90DF91CF910895F89420912B01A4
:10078000309129012078FC018F3F910509F090F408
:10079000EF70FF27EC5AFF4FE4912E2B20932B0193
:1007A0003078FC01E07FFF2794E0F695E7959A9575
:1007B000E1F70DC0FF27EC5AFF4FE4912E2B209359
:1007C0002B013078FC01EE27FF77EF2FFF27EC5A43
:1007D000FF4FE491E32BE093290178940895E3E23D
:1007E000F1E080858078808786818078868308958F
:1007F0009091230180FF02C0916001C09E7F909381
:1008000023019091230181FF02C0946001C09B7F6E
:10081000909323019091230182FF02C0906101C057
:100820009F7E909323019091230183FF02C09064E7
:1008300001C09F7B909323019091240184FF02C00B
:10084000916001C09E7F909324019091250185FFC6
:1008500002C0916001C09E7F909325019091250177
:1008600086FF02C0946001C09B7F90932501909108
:10087000250187FF03C0892F806102C0892F8F7EE9
:100880008093250108959091230180FF02C092601A
:1008900001C09D7F909323019091230181FF02C0AD
:1008A000986001C0977F909323019091230182FF6C
:1008B00002C0906201C09F7D90932301909123011B
:1008C00083FF02C0906801C09F77909323019091AD
:1008D000240184FF02C0926001C09D7F9093240197
:1008E0009091250185FF02C0926001C09D7F909389
:1008F00025019091250186FF02C0986001C0977F75
:10090000909325019091250187FF03C0892F806274
:1009100002C0892F8F7D809325010895CF93DF93A7
:10092000C0918400C33008F061C0D0E0D89882E460
:100930000E944603D29840E050E0A1E0B0E085E09C
:100940008C9FB0018D9F700D11246B587F4F20E05C
:1009500030E080E00000D9980000000000000000B6
:10096000FD01022E01C0EE0F0A94EAF7CA9B03C0F4
:100970008E2B000002C0E0958E230000D99A000063
:100980000000000000000000000000002F5F3F4F4B
:1009900028303105F9F6FB01E40FF51F80834F5F26
:1009A0005F4F4530510599F6DA98D29AD89AD9987E
:1009B0008091840095E0899FF0011124EB58FF4F4E
:1009C0009081947261F49181947249F4928194724D
:1009D00031F49381947219F49481947219F0109205
:1009E00084001FC08F5F809384001BC0109284001E
:1009F00080E090E0FC01EB58FF4F708165814581FC
:100A000052852081328567234523462B3223242FAC
:100A1000232BFC01E85EFE4F208301968530910573
:100A200049F7DF91CF910895843031F0863039F065
:100A3000823049F480E001C081E00C94630380912E
:100A40001C018271089580E00895FF920F931F9317
:100A5000CF93DF93F82E0E941405CF2DD0E0FE0136
:100A6000E55EFE4F81110AC0108284E0F8121AC0C0
:100A70000E94E302FE01E45EFE4F11C090818917DF
:100A800089F080838E01045E1E4FF80190818927D2
:100A90008083F4E0FF1206C00E94E302F801908117
:100AA00089238083C45EDE4F8881DF91CF911F91BF
:100AB0000F91FF90089584E68093360186EF8DBDF7
:100AC0008BE38CBD8EB583608EBD86E082BF83B71D
:100AD000836083BF89B7856089BF0895CF93DF9313
:100AE00000D0CDB7DEB79A83898389819A81892B1B
:100AF00079F0F89410923D0110923C017894209185
:100B00003C0130913D0189819A8128173907B9F755
:100B10000F900F90DF91CF9108951F920F920FB613
:100B20000F9211242F933F934F935F936F937F9373
:100B30008F939F93AF93BF93EF93FF9386EF8DBDFA
:100B40008BE38CBD809139018F5F809339018C30AC
:100B500038F010923901809185008095809385004E
:100B6000809138018F5F80933801823308F467C029
:100B70001092380180918600809580938600809144
:100B80002E018F5F80932E018E3178F110922E010D
:100B900080918800816080938800809188008F7D9B
:100BA0008093880080912F018F5F80932F01803F79
:100BB00070F010922F01809131018F5F809331018D
:100BC00080913101893118F088E180933101809161
:100BD00030018F5F809330018A3038F010923001FD
:100BE000809188008F7B809388008091880083FFAC
:100BF0000EC0809132018F5F80933201863038F0D1
:100C00001092320180918800877F809388008091C4
:100C1000880084FF14C09091860080912C0190FB85
:100C200080F980932C010E94B700882341F09091B5
:100C3000860080912C0190FB81F980932C0180919A
:100C4000880081FD11C00E94E7020E94B7009091C8
:100C50008600892349F08091880083FD05C00E94A9
:100C6000B70090E00E94BD0378940E9494030E9414
:100C70008E04F89480911C0184FF0DC08091330193
:100C800090913401019690933401809333018C321A
:100C9000914058F432C082E00E9414058111EECFD9
:100CA000109234011092330128C080911C0184FFFE
:100CB00012C08091330190913401843F9140E8F05B
:100CC00010923401109233019091880082E08927BC
:100CD0008093880012C010923401109233018091E9
:100CE0008800846080938800809188008E7F809344
:100CF000880010922E0110922F0186E00E94250597
:100D000084FF1BC084E00E9414058823A1F0809119
:100D100037018F5F8093370180913701843668F007
:100D20001092370184E00E94140590916800892791
:100D30008093680002C0109237018091880081FF83
:100D40003DC084E00E941405811104C080911C0103
:100D500081FF2FC0809135018F5F80933501909185
:100D6000350180913601981778F084E00E941405CF
:100D7000882351F01092350189E0809336018091EB
:100D80008800806880938800809135018F3FB1F49E
:100D900090911C019695917080911C0182958170B3
:100DA000891760F49091870088E0892780938700F5
:100DB00005C01092350184E68093360180912D01A3
:100DC000CB9B02C08E7F01C0816080932D018091FA
:100DD000870080918700FF91EF91BF91AF919F9124
:100DE0008F917F916F915F914F913F912F910F90D4
:100DF0000FBE0F901F9018951F920F920FB60F9273
:100E000011248F939F9386E082BF80913C01909143
:100E10003D01019690933D0180933C0180913A0100
:100E20008F5F80933A018A3F31F492B380E489273F
:100E300082BB10923A0180913B018F5F80933B010E
:100E40008A3F31F492B380E2892782BB10923B0142
:100E50009F918F910F900FBE0F901F901895FC01DE
:100E60009FEF81E3615060F02191922728E097FF86
:100E700003C0990F982701C0990F2150C1F7F2CFF5
:100E8000892F8F77089581B3846681BB82B38B7974
:100E900082BB83E089B910BC1BB888E08AB986E8B8
:100EA00080BD08951F920F920FB60F9211242F93B9
:100EB0003F934F935F936F937F938F939F93AF93E2
:100EC000BF93CF93EF93FF938BB1CCB18C7109F0AB
:100ED00060C080914B018F5F80934B0180918900AE
:100EE000813829F080918900883809F049C08091C3
:100EF00089008138E1F590918A0080913E01981334
:100F000029C062E089E890E00E942F0710924B010F
:100F10001092890010928A008C133BC08091DB00F4
:100F20008F5F8093DB00853030F01092DB001092F1
:100F3000DA001092D9001092DD001092DC0080914E
:100F40002B018F7780932B018091870084608093A1
:100F500087001FC08C1303C0C0938A001AC0109270
:100F60004B011092890081E080938A0012C0809129
:100F70008900883871F010924B011092890009C0E5
:100F8000C13811F0C83819F4C093890002C010921A
:100F90004B01FF91EF91CF91BF91AF919F918F91B5
:100FA0007F916F915F914F913F912F910F900FBE65
:100FB0000F901F9018951F920F920FB60F92112449
:100FC0008F939F93EF93FF93809146018F5F809360
:100FD000460190914701891710F056980AC08091F8
:100FE0004601E0914801F0914901E80FF11D80812F
:100FF0008CB9FF91EF919F918F910F900FBE0F9041
:081000001F901895F894FFCF32
:0A100800C500C500C5000202FF008C
:00000001FF
