S00E00004D795F4D43552E737265630C
S11300000C9433000C9473000C9450000C94500026
S11300100C9450000C9450000C9450000C9450001C
S11300200C9450000C94D7050C9450000C94460783
S11300300C9450000C9494070C9450000C941D08DC
S11300400C9480000C9450000C9450000C94D30039
S11300500C9450003F065B4F666D7D077F6F7639C9
S1130060316E3777737911241FBECFE5D8E0DEBF38
S1130070CDBF10E0A0E6B0E0E4EBF0E102C00590F3
S11300800D92AA36B107D9F721E0AAE6B0E001C083
S11300901D92A035B207E1F70E9452000C94580853
S11300A00C9400000E94A5050E9485070E94C600CA
S11300B078940E94BF02C0E0D0E080E4F82E82B3BE
S11300C08F2582BB61E080E80E94E9028E010F5F08
S11300D01F4F64E0CE010E94EF0288EE93E00E947D
S11300E0B805E801ECCF1F920F920FB60F921124BE
S11300F0829B10926A000F900FBE0F901F9018956C
S11301001F920F920FB60F9211242F933F938F9348
S11301109F9324B135B180916B0090916C00820F54
S1130120931F90936C0080936B0080916D008150BD
S113013080936D0081110FC0339880916B00909172
S11301406C0024E0969587952A95E1F790936C00CE
S113015080936B0001C0369A9F918F913F912F91AC
S11301600F900FBE0F901F9018959C9B05C081E0C7
S1130170809367008EEA08958091660080936700FB
S113018080916E00089510926F00089585B3836086
S113019085BB84B38C7F84BB88E480B911B808958F
S11301A080916F0008951F920F920FB60F92112441
S11301B02F933F934F935F936F937F938F939F936B
S11301C0AF93BF93EF93FF9381B1887F803609F497
S11301D026C1A0F5883209F49BC090F4803109F45B
S11301E067C038F4882309F457C0883009F458C02C
S11301F06CC1883109F46DC0803209F4D1C065C185
S1130200803409F4C6C080F4803309F4BAC088335A
S113021009F05BC180916F00806280936F0010923F
S1130220DE001092E600B3C0803509F4C5C08835FD
S113023009F4DBC0883409F048C1B2C0883909F434
S113024004C1A8F4883709F4E1C038F4883609F405
S1130250DDC0803709F4E3C038C1883809F4F5C03B
S1130260803909F4E4C0803809F02FC1E0C0803B34
S113027009F4F7C038F4803A09F401C1883A09F462
S1130280F9C023C1803C09F40EC1883C09F40BC1B8
S1130290883B09F4F6C019C180916F00816083C066
S11302A090916F009C708091DF00911108C00FC085
S11302B090916F009C708091DF00983041F08E7FA8
S11302C08093DF008091DF0083B985E8EAC0816014
S11302D0F7CF80916F008C70843089F48091DE00B8
S11302E0E091E800F091E900E80FF11D808183B905
S11302F08091DE008F5F8093DE0085E886BF809169
S11303006F008C70883009F0E0C0E091E6002EC0E8
S113031080916F008C708430E9F48091DE009091BC
S1130320EA00891308C085E986BFE0916400F09172
S1130330650009950FC0E091E800F091E900E80F2D
S1130340F11D808183B98091DE008F5F8093DE0090
S113035085E886BF80916F008C70883009F0B5C045
S1130360E091E6008091E300E81789F0F0E0EC51B9
S1130370FF4F808183B98091E6008F5F8093E60010
S1130380A4CF80916F00826080936F0038C085EAAB
S113039088C09091DE008091EA00981370C095CFD8
S11303A080916F00806180936F0085E986BFE09142
S11303B06000F091610088C083B19091DE00E0910B
S11303C0E800F091E900E90FF11D80838091DE00DF
S11303D08F5F8093DE0090E001962091EA0030E088
S11303E08217930709F04BC070CF83B19091DE0060
S11303F0E091E800F091E900E90FF11D808385E9BF
S113040086BFE0916400F09165005EC080916F004A
S1130410806A80936F001092DE001092E600809153
S11304206F00806480936F001092EB0028C080916D
S1130430EB0093B1E82FF0E0E451FF4F90838F5F1E
S11304408093EB008230D9F440CF83B1E091EB008C
S1130450F0E0E451FF4F808380916F0087FF2EC04E
S11304602BC080916F00806A80936F001092DE0031
S11304701092E6001092EB008091E00083B985ECC5
S113048010C0E091EB00EF5FE093EB00F0E0E0528E
S1130490FF4F808183B98091EB00823009F415CF3E
S11304A081EC86BF12C080916F0087FF07C08091E6
S11304B06F008F7780936F0085EE01C085EC86BF57
S11304C0E0916200F09163000995FF91EF91BF9173
S11304D0AF919F918F917F916F915F914F913F91D8
S11304E02F910F900FBE0F901F90189590916F0051
S11304F096FD18C01092DE005093E9004093E80086
S11305008093DF006093E7002093EA0084E0809307
S11305106F0085EA86BF80916F00806480936F00CE
S113052081E0089580E00895807F61118160982FB3
S11305309460909370008093710022E040E750E053
S113054060E080E70E9476020E94D00086FDFCCF26
S11305500895CF93DF93C82FD62F0E9494026D2F56
S11305608C2F8295807FDF91CF910C94940260E070
S113057081E00E94A90284E090E00C94B8058AEF1F
S113058090E00E94B80560E083E00E94A90285E043
S113059090E00E94B80560E083E00E94A90285E033
S11305A090E00E94B80560E083E00E94A90281E027
S11305B090E00E94B80560E082E00E94A90260E039
S11305C088E20E94A90260E08CE00E94A9020C94D7
S11305D0B702962F815060E0890F0C94A902EF9224
S11305E0FF920F931F93CF93DF9300D000D01F92FD
S11305F0CDB7DEB7262F60E177E20E9444086D8311
S113060068EE73E00E9444086C8364E670E00E9424
S113061044086B836AE070E00E9444086A8389831B
S1130620CE0101967C018C01020F111D0E151F05D0
S113063041F0F80182918F0161E0805D0E94A9027E
S1130640F5CF0F900F900F900F900F90DF91CF91F7
S11306501F910F91FF90EF9008958091F300809582
S11306600895CF938091720080FD46C0109285005A
S11306708091880083FF22C08091F600843A51F073
S113068090918600992321F090E00E94070402C013
S11306900E943904809186009091EF002091F2002D
S11306A0292B3091F000232B9091F3009823822F73
S11306B0892BC091F500C8238C2F1AC0C091F40077
S11306C09091EF008091F200982B2091F000922BF2
S11306D09C238091F3008C23409186002091860016
S11306E03091F100C323C92B2823C22784238927EF
S11306F00E948D048C2F05C08091850082700E9419
S11307008403CF910C944204813019F480917400D5
S11307100895823019F480917300089580E008955B
S113072020E030E090E0D998AC01022E02C055954B
S113073047950A94E2F740FF02C0DA9A01C0DA98BA
S1130740D99A2F5F3F4F2830310569F70895D8981B
S11307500E949003DA98D89A0895E82F60E070E038
S113076080E0DB01A95EBE4F9C912C9130E00E2EFF
S113077002C0359527950A94E2F728703327A9011A
S11307805595479555954795292F30E00E2E02C073
S1130790359527950A94E2F721703327242B352BBE
S11307A0AB01440F551F01C0220F4A95EAF7822B73
S11307B06F5F7F4F64307105A1F60895CF93DF9387
S11307C01F92CDB7DEB7198280E40E94A703D898A0
S11307D080EC0E949003198289818B3058F4E9815E
S11307E0F0E0EE5DFE4F80810E94900389818F5F6F
S11307F08983F2CFD89A83E00E94A703809167008F
S113080088680E94A7030F90DF91CF910895F89410
S113081020912A01309128012078FC018F3F910515
S113082009F090F4EF70FF27EC5AFF4FE4912E2B60
S113083020932A013078FC01E07FFF2794E0F695AD
S1130840E7959A95E1F70DC0FF27EC5AFF4FE49125
S11308502E2B20932A013078FC01EE27FF77EF2F0F
S1130860FF27EC5AFF4FE491E32BE093280178949F
S11308700895E2E2F1E0808580788087868180783F
S1130880868308959091220180FF02C0916001C087
S11308909E7F909322019091220181FF02C0946077
S11308A001C09B7F909322019091220182FF02C09C
S11308B0906101C09F7E909322019091220183FF59
S11308C002C0906401C09F7B909322019091230108
S11308D084FF02C0916001C09E7F90932301909198
S11308E0240185FF02C0916001C09E7F9093240182
S11308F09091240186FF02C0946001C09B7F909375
S113090024019091240187FF03C0892F806102C0D4
S1130910892F8F7E8093240108959091220180FF76
S113092002C0926001C09D7F9093220190912201A8
S113093081FF02C0986001C0977F9093220190913B
S1130940220182FF02C0906201C09F7D9093220128
S11309509091220183FF02C0906801C09F77909319
S113096022019091230184FF02C0926001C09D7F07
S1130970909323019091240185FF02C0926001C0ED
S11309809D7F909324019091240186FF02C098607A
S113099001C0977F909324019091240187FF03C0A5
S11309A0892F806202C0892F8F7D8093240108954E
S11309B0CF93DF93C0918400C33008F061C0D0E0CE
S11309C0D89882E40E949003D29840E050E0A1E0DD
S11309D0B0E085E08C9FB0018D9F700D11246B58A1
S11309E07F4F20E030E080E00000D9980000000054
S11309F000000000FD01022E01C0EE0F0A94EAF788
S1130A00CA9B03C08E2B000002C0E0958E23000019
S1130A10D99A00000000000000000000000000005F
S1130A202F5F3F4F28303105F9F6FB01E40FF51F26
S1130A3080834F5F5F4F4530510599F6DA98D29A1B
S1130A40D89AD9988091840095E0899FF001112467
S1130A50EB58FF4F9081947261F49181947249F440
S1130A609281947231F49381947219F49481947202
S1130A7019F0109284001FC08F5F809384001BC004
S1130A801092840080E090E0FC01EB58FF4F7081ED
S1130A906581458152852081328567234523462B14
S1130AA03223242F232BFC01E95EFE4F2083019681
S1130AB08530910549F7DF91CF910895843031F065
S1130AC0863039F0823049F480E001C081E00C9432
S1130AD0AD0380911B018271089580E00895FF9217
S1130AE00F931F93CF93DF93F82E0E945E05CF2DB3
S1130AF0D0E0FE01E65EFE4F81110AC0108284E060
S1130B00F8121AC00E942D03FE01E55EFE4F11C0CB
S1130B109081891789F080838E01055E1E4FF8014C
S1130B20908189278083F4E0FF1206C00E942D0380
S1130B30F801908189238083C55EDE4F8881DF912F
S1130B40CF911F910F91FF90089584E68093350112
S1130B5086EF8DBD8BE38CBD8EB583608EBD86E044
S1130B6082BF83B7836083BF89B7856089BF0895D7
S1130B70CF93DF9300D0CDB7DEB79A838983898181
S1130B809A81892B79F0F89410923C0110923B01E0
S1130B90789420913B0130913C0189819A812817F6
S1130BA03907B9F70F900F90DF91CF9108951F92F5
S1130BB00F920FB60F9211242F933F934F935F938D
S1130BC06F937F938F939F93AF93BF93EF93FF9311
S1130BD086EF8DBD8BE38CBD809138018F5F809350
S1130BE038018C3038F0109238018091850080955E
S1130BF080938500809137018F5F80933701823322
S1130C0008F467C010923701809186008095809324
S1130C10860080912D018F5F80932D018E3178F1B4
S1130C2010922D01809188008160809388008091CA
S1130C3088008F7D8093880080912E018F5F809340
S1130C402E01803F70F010922E01809130018F5F51
S1130C508093300180913001893118F088E18093CC
S1130C60300180912F018F5F80932F018A3038F0FB
S1130C7010922F01809188008F7B8093880080914F
S1130C80880083FF0EC0809131018F5F8093310112
S1130C90863038F01092310180918800877F8093EC
S1130CA088008091880084FF14C090918600809110
S1130CB02B0190FB80F980932B010E94B5008823BF
S1130CC041F09091860080912B0190FB81F98093F3
S1130CD02B018091880081FD11C00E9431030E9484
S1130CE0B50090918600892349F08091880083FDA6
S1130CF005C00E94B50090E00E94070478940E9409
S1130D00DE030E94D804F89480911B0184FF0DC077
S1130D108091320190913301019690933301809335
S1130D2032018C32914058F432C082E00E945E0558
S1130D308111EECF109233011092320128C08091BC
S1130D401B0184FF12C08091320190913301843FD2
S1130D509140E8F010923301109232019091880092
S1130D6082E089278093880012C010923301109288
S1130D70320180918800846080938800809188008B
S1130D808E7F8093880010922D0110922E0186E0B0
S1130D900E946F0584FF1BC084E00E945E058823C7
S1130DA0A1F0809136018F5F8093360180913601E6
S1130DB0843668F01092360184E00E945E059091BA
S1130DC0680089278093680002C0109236018091E0
S1130DD0880081FF3DC084E00E945E05811104C04B
S1130DE080911B0181FF2FC0809134018F5F80931C
S1130DF034019091340180913501981778F084E0A2
S1130E000E945E05882351F01092340189E080939A
S1130E103501809188008068809388008091340136
S1130E208F3FB1F490911B019695917080911B01B5
S1130E3082958170891760F49091870088E08927F2
S1130E408093870005C01092340184E680933501B5
S1130E5080912C01CB9B02C08E7F01C08160809366
S1130E602C018091870080918700FF91EF91BF91C1
S1130E70AF919F918F917F916F915F914F913F912E
S1130E802F910F900FBE0F901F9018951F920F92E5
S1130E900FB60F9211248F939F9386E082BF8091A7
S1130EA03B0190913C01019690933C0180933B015E
S1130EB0809139018F5F809339018A3F11F4109238
S1130EC0390180913A018F5F80933A018A3F11F48E
S1130ED010923A019F918F910F900FBE0F901F9027
S1130EE01895FC019FEF81E3615060F021919227F6
S1130EF028E097FF03C0990F982701C0990F21504C
S1130F00C1F7F2CF892F8F77089581B3846681BBAF
S1130F1082B38B7982BB83E089B910BC1BB888E0AB
S1130F208AB986E880BD08951F920F920FB60F927A
S1130F3011242F933F934F935F936F937F938F93DA
S1130F409F93AF93BF93CF93EF93FF938BB1CCB1A8
S1130F508C7109F060C080914A018F5F80934A01CF
S1130F6080918900813829F080918900883809F0BE
S1130F7049C0809189008138E1F590918A0080917F
S1130F803D01981329C062E089E890E00E9471074E
S1130F9010924A011092890010928A008C133BC06F
S1130FA08091DB008F5F8093DB00853030F01092FE
S1130FB0DB001092DA001092D9001092DD0010923A
S1130FC0DC0080912A018F7780932A018091870029
S1130FD08460809387001FC08C1303C0C0938A0071
S1130FE01AC010924A011092890081E080938A000D
S1130FF012C080918900883871F010924A011092D1
S1131000890009C0C13811F0C83819F4C0938900A7
S113101002C010924A01FF91EF91CF91BF91AF911D
S11310209F918F917F916F915F914F913F912F91FC
S11310300F900FBE0F901F9018951F920F920FB62E
S11310400F9211248F939F93EF93FF938091450107
S11310508F5F8093450190914601891710F056984F
S11310600AC080914501E0914701F0914801E80FE1
S1131070F11D80818CB9FF91EF919F918F910F9019
S11310800FBE0F901F901895AA1BBB1B51E107C000
S1131090AA1FBB1FA617B70710F0A61BB70B881F04
S11310A0991F5A95A9F780959095BC01CD01089593
S10710B0F894FFCFDE
S10D10B4C300C300C3000202FF00E2
S9030000FC
