:100000000C9433000C9450000C9450000C9450004D
:100010000C9450000C9450000C9450000C94500020
:100020000C9450000C9434050C9450000C94A306CE
:100030000C9450000C94F9060C9450000C94820718
:100040000C947C000C9450000C9450000C94CD0047
:100050000C9450003F065B4F666D7D077F6F7639CD
:10006000316E3777737911241FBECFE5D8E0DEBF3C
:10007000CDBF10E0A0E6B0E0E6E5FFE002C00590ED
:100080000D92A437B107D9F721E0A4E7B0E001C091
:100090001D92A335B207E1F70E9452000C94A90704
:1000A0000C940000CF93DF93CDB7DEB72B970FB63C
:1000B000F894DEBF0FBECDBF0E9402050E94EA0683
:1000C0000E94C00078948BE0E9E6F0E0DE01119632
:1000D00001900D928A95E1F78FEB0E94CA002AE009
:1000E000AE014F5F5F4F60E08FE40E946C0288EECC
:1000F00093E00E941505F0CF1F920F920FB60F925A
:1001000011242F933F938F939F9324B135B1809106
:10011000740090917500820F931F909375008093E7
:1001200074008091760081508093760081110FC019
:100130003398809174009091750024E0969587958E
:100140002A95E1F7909375008093740001C0369A68
:100150009F918F913F912F910F900FBE0F901F9005
:1001600018959C9B05C081E0809367008EEA0895F6
:1001700080916600809367008091770008950895CC
:1001800085B3836085BB84B38C7F84BB88E480B9EE
:1001900011B808958093F10008951F920F920FB641
:1001A0000F9211242F933F934F935F936F937F93FD
:1001B0008F939F93AF93BF93EF93FF9381B1887F0A
:1001C000803609F423C1A0F5883209F499C090F46F
:1001D000803109F467C038F4882309F457C08830A7
:1001E00009F458C068C1883109F46BC0803209F441
:1001F000CFC061C1803409F4C4C080F4803309F4F5
:10020000B8C0883309F057C18091F10080628093B3
:10021000F1001092E4001092EA00B1C0803509F4B8
:10022000C3C0883509F4D8C0883409F044C1B0C0CF
:10023000883909F401C1A8F4883709F4DEC038F41C
:10024000883609F4DAC0803709F4E0C034C1883850
:1002500009F4F2C0803909F4E1C0803809F02BC1FB
:10026000DDC0803B09F4F6C038F4803A09F4F0C0F0
:10027000883A09F4F8C01FC1803C09F40CC1883CDD
:1002800009F409C1883B09F4F5C015C18091F1005A
:10029000816081C09091F1009C708091E500911186
:1002A00008C00DC09091F1009C708091E5009830DD
:1002B00031F08E7F8093E5008091E500D8C08160A9
:1002C000F9CF8091F1008C70843089F48091E40042
:1002D000E091EC00F091ED00E80FF11D808183B911
:1002E0008091E4008F5F8093E40085E886BF809171
:1002F000F1008C70883009F0DEC0E091EA002EC079
:100300008091F1008C708430E9F48091E400909148
:10031000EE00891308C085E986BFE0916400F09182
:10032000650009950FC0E091EC00F091ED00E80F39
:10033000F11D808183B98091E4008F5F8093E40098
:1003400085E886BF8091F1008C70883009F0B3C0D9
:10035000E091EA008091E700E81789F0F0E0E851C9
:10036000FF4F808183B98091EA008F5F8093EA001C
:100370007FC08091F10082608093F10037C085EAF0
:1003800088C09091E4008091EE00981361C070C025
:100390008091F10080618093F10085E986BFE09152
:1003A0006000F091610086C083B19091E400E0911B
:1003B000EC00F091ED00E90FF11D80838091E400E5
:1003C0008F5F8093E40090E001962091EE0030E092
:1003D00082179307E9F54CC083B19091E400E09156
:1003E000EC00F091ED00E90FF11D808385E986BFF7
:1003F000E0916400F09165005DC08091F100806A39
:100400008093F1001092E4001092EA008091F100D4
:1004100080648093F1001092EF002AC08091EF0079
:1004200093B1E82FF0E0E051FF4F90838F5F80930E
:10043000EF0081110DC01CC083B1E091EF00F0E02E
:10044000E051FF4F80838091F10087FF2DC02AC0CB
:1004500085EC1FC08091F100806A8093F1001092BA
:10046000E4001092EA001092EF008091E60083B958
:1004700085E80FC0E091EF00EF5FE093EF00F0E060
:10048000EA51FF4F808183B98091EF00882381F387
:1004900081EC86BF10C08091F10087FF05C08F7787
:1004A0008093F10085EE01C085EC86BFE09162008B
:1004B000F09163000995FF91EF91BF91AF919F91EA
:1004C0008F917F916F915F914F913F912F910F90FD
:1004D0000FBE0F901F9018959091F10096FD18C0D7
:1004E0001092E4005093ED004093EC008093E500FF
:1004F0006093EB002093EE0084E08093F10085EAA6
:1005000086BF8091F10080648093F10081E00895BE
:1005100080E008958091F60080950895CF938091B2
:10052000780080FD46C010928B0080918E0083FF82
:1005300022C08091F900843A51F090918C00992367
:1005400021F090E00E94640302C00E949603809113
:100550008C009091F2002091F500292B3091F3004E
:10056000232B9091F6009823822F892BC091F800BD
:10057000C8238C2F1AC0C091F7009091F20080918F
:10058000F500982B2091F300922B9C238091F6008C
:100590008C2340918C0020918C003091F400C32377
:1005A000C92B2823C227842389270E94EA038C2F82
:1005B00005C080918B0082700E94E102CF910C9463
:1005C0009F03813019F480917A000895823019F4E4
:1005D00080917900089580E0089520E030E090E077
:1005E000D998AC01022E02C0559547950A94E2F7BE
:1005F00040FF02C0DA9A01C0DA98D99A2F5F3F4FC4
:100600002830310569F70895D8980E94ED02DA98EC
:10061000D89A0895E82F60E070E080E0DB01A65EE4
:10062000BE4F9C912C9130E00E2E02C0359527953F
:100630000A94E2F728703327A901559547955595F7
:100640004795292F30E00E2E02C0359527950A9444
:10065000E2F721703327242B352BAB01440F551FB4
:1006600001C0220F4A95EAF7822B6F5F7F4F6430FB
:100670007105A1F60895CF93DF931F92CDB7DEB732
:10068000198280E40E940403D89880EC0E94ED0255
:10069000198289818B3058F4E981F0E0EB5DFE4FDF
:1006A00080810E94ED0289818F5F8983F2CFD89A81
:1006B00083E00E9404038091670088680E9404031D
:1006C0000F90DF91CF910895F89420912D013091F2
:1006D0002B012078FC018F3F910509F090F4EF7019
:1006E000FF27EC5AFF4FE4912E2B20932D013078F9
:1006F000FC01E07FFF2794E0F695E7959A95E1F7F6
:100700000DC0FF27EC5AFF4FE4912E2B20932D01B3
:100710003078FC01EE27FF77EF2FFF27EC5AFF4FD1
:10072000E491E32BE0932B0178940895E5E2F1E066
:1007300080858078808786818078868308959091EF
:10074000250180FF02C0916001C09E7F909325012A
:100750009091250181FF02C0946001C09B7F90931E
:1007600025019091250182FF02C0906101C09F7E0A
:10077000909325019091250183FF02C0906401C0F0
:100780009F7B909325019091260184FF02C0916088
:1007900001C09E7F909326019091270185FF02C0A2
:1007A000916001C09E7F909327019091270186FF61
:1007B00002C0946001C09B7F909327019091270114
:1007C00087FF03C0892F806102C0892F8F7E8093AD
:1007D000270108959091250180FF02C0926001C019
:1007E0009D7F909325019091250181FF02C0986023
:1007F00001C0977F909325019091250182FF02C04F
:10080000906201C09F7D909325019091250183FF07
:1008100002C0906801C09F779093250190912601B6
:1008200084FF02C0926001C09D7F90932601909149
:10083000270185FF02C0926001C09D7F9093270130
:100840009091270186FF02C0986001C0977F909326
:1008500027019091270187FF03C0892F806202C082
:10086000892F8F7D809327010895CF93DF93C091C7
:100870008A00C33008F061C0D0E0D89882E40E94BA
:10088000ED02D29840E050E0A1E0B0E085E08C9F1E
:10089000B0018D9F700D112465587F4F20E030E02E
:1008A00080E00000D9980000000000000000FD0179
:1008B000022E01C0EE0F0A94EAF7CA9B03C08E2BEA
:1008C000000002C0E0958E230000D99A00000000CD
:1008D000000000000000000000002F5F3F4F2830A4
:1008E0003105F9F6FB01E40FF51F80834F5F5F4F81
:1008F0004530510599F6DA98D29AD89AD9988091CC
:100900008A0095E0899FF0011124E558FF4F9081FE
:10091000947261F49181947249F49281947231F4E9
:100920009381947219F49481947219F010928A0050
:100930001FC08F5F80938A001BC010928A0080E0E6
:1009400090E0FC01E558FF4F70816581458152853B
:100950002081328567234523462B3223242F232BE6
:10096000FC01E65EFE4F208301968530910549F734
:10097000DF91CF910895843031F0863039F08230A4
:1009800049F480E001C081E00C940A0380911E01CB
:100990008271089580E00895FF920F931F93CF9383
:1009A000DF93F82E0E94BB04CF2DD0E0FE01E35E62
:1009B000FE4F81110AC0108284E0F8121AC00E9412
:1009C0008A02FE01E25EFE4F11C09081891789F014
:1009D00080838E01025E1E4FF801908189278083FB
:1009E000F4E0FF1206C00E948A02F8019081892378
:1009F0008083C25EDE4F8881DF91CF911F910F917E
:100A0000FF90089584E68093380186EF8DBD8BE3D7
:100A10008CBD8EB583608EBD86E082BF83B7836058
:100A200083BF89B7856089BF0895CF93DF9300D0D6
:100A3000CDB7DEB79A83898389819A81892B79F032
:100A4000F89410923F0110923E01789420913E015B
:100A500030913F0189819A8128173907B9F70F90A2
:100A60000F90DF91CF9108951F920F920FB60F92C2
:100A700011242F933F934F935F936F937F938F93A3
:100A80009F93AF93BF93EF93FF9386EF8DBD8BE35F
:100A90008CBD80913B018F5F80933B018C3038F09F
:100AA00010923B0180918B00809580938B00809108
:100AB0003A018F5F80933A01823308F467C0109245
:100AC0003A0180918C00809580938C008091300158
:100AD0008F5F809330018E3178F1109230018091D8
:100AE0008E00816080938E0080918E008F7D809338
:100AF0008E00809131018F5F80933101803F70F0D3
:100B000010923101809133018F5F80933301809186
:100B10003301893118F088E18093330180913201EB
:100B20008F5F809332018A3038F0109232018091C9
:100B30008E008F7B80938E0080918E0083FF0EC08D
:100B4000809134018F5F80933401863038F01092A9
:100B5000340180918E00877F80938E0080918E007B
:100B600084FF14C090918C0080912E0190FB80F93D
:100B700080932E010E94B100882341F090918C0057
:100B800080912E0190FB81F980932E0180918E003F
:100B900081FD11C00E948E020E94B10090918C00D4
:100BA000892349F080918E0083FD05C00E94B10029
:100BB00090E00E94640378940E943B030E943504F5
:100BC000F89480911E0184FF0DC0809135019091B1
:100BD0003601019690933601809335018C32914015
:100BE00058F432C082E00E94BB048111EECF109213
:100BF00036011092350128C080911E0184FF12C079
:100C00008091350190913601843F9140E8F0109237
:100C100036011092350190918E0082E089278093F1
:100C20008E0012C0109236011092350180918E0014
:100C3000846080938E0080918E008E7F80938E00E2
:100C4000109230011092310186E00E94CC0484FFA2
:100C50001BC084E00E94BB048823A1F0809139016D
:100C60008F5F8093390180913901843668F010924A
:100C7000390184E00E94BB04909168008927809329
:100C8000680002C01092390180918E0081FF3DC042
:100C900084E00E94BB04811104C080911E0181FF89
:100CA0002FC0809137018F5F80933701909137017A
:100CB00080913801981778F084E00E94BB04882363
:100CC00051F01092370189E08093380180918E00B5
:100CD000806880938E00809137018F3FB1F49091AE
:100CE0001E019695917080911E01829581708917E1
:100CF00060F490918D0088E0892780938D0005C075
:100D00001092370184E68093380180912F01CB9BAC
:100D100002C08E7F01C0816080932F0180918D0081
:100D200080918D00FF91EF91BF91AF919F918F9135
:100D30007F916F915F914F913F912F910F900FBED7
:100D40000F901F9018951F920F920FB60F921124BB
:100D50008F939F9386E082BF80913E0190913F01E7
:100D6000019690933F0180933E0180913C018F5FFB
:100D700080933C018A3F31F492B380E4892782BB9F
:100D800010923C0180913D018F5F80933D018A3F2D
:100D900031F492B380E2892782BB10923D019F918A
:100DA0008F910F900FBE0F901F901895FC019FEF31
:100DB00081E3615060F02191922728E097FF03C002
:100DC000990F982701C0990F2150C1F7F2CF892FB1
:100DD0008F77089581B3846681BB82B38B7982BBA0
:100DE00083E089B910BC1BB888E08AB986E880BD69
:100DF00008951F920F920FB60F9211242F933F93D5
:100E00004F935F936F937F938F939F93AF93BF9312
:100E1000CF93EF93FF938BB1CCB18C7109F060C08D
:100E200080914D018F5F80934D0180918F008138BB
:100E300029F080918F00883809F049C080918F0097
:100E40008138E1F59091900080914001981329C07C
:100E500062E08FE890E00E94D60610924D01109259
:100E60008F00109290008C133BC08091E1008F5F47
:100E70008093E100853030F01092E1001092E000A4
:100E80001092DF001092E3001092E20080912D0199
:100E90008F7780932D0180918D00846080938D00E9
:100EA0001FC08C1303C0C09390001AC010924D0154
:100EB00010928F0081E08093900012C080918F008B
:100EC000883871F010924D0110928F0009C0C1381E
:100ED00011F0C83819F4C0938F0002C010924D0170
:100EE000FF91EF91CF91BF91AF919F918F917F91A2
:100EF0006F915F914F913F912F910F900FBE0F9087
:100F00001F9018951F920F920FB60F9211248F9376
:100F10009F93EF93FF93809148018F5F80934801E7
:100F200090914901891710F056980AC080914801A4
:100F3000E0914A01F0914B01E80FF11D80818CB9DD
:100F4000FF91EF919F918F910F900FBE0F901F9087
:060F50001895F894FFCF94
:100F5600BF00BF00BF000202FF31323334353637DF
:040F660038393000E6
:00000001FF
