:100000000C9433000C9450000C9450000C9450004D
:100010000C9450000C9450000C9450000C94500020
:100020000C9450000C940F050C9450000C947E0618
:100030000C9450000C94D4060C9450000C945D0762
:100040000C9467000C9450000C9450000C94B80071
:100050000C9450003F065B4F666D7D077F6F7639CD
:10006000316E3777737911241FBECFE5D8E0DEBF3C
:10007000CDBF10E0A0E6B0E0ECE0FFE002C00590EC
:100080000D92AA36B107D9F721E0AAE6B0E001C087
:100090001D92A934B207E1F70E9452000C94840724
:1000A0000C9400000E94DD040E94C5060E94AB0073
:1000B00078948FEB0E94B50045EA6FEF70E080EA1C
:1000C0000E94460288EE93E00E94F004F2CF1F9255
:1000D0000F920FB60F9211242F933F938F939F93FC
:1000E00024B135B180916A0090916B00820F931F0B
:1000F00090936B0080936A0080916C008150809394
:100100006C0081110FC0339880916A0090916B0050
:1001100024E0969587952A95E1F790936B0080935C
:100120006A0001C0369A9F918F913F912F910F9055
:100130000FBE0F901F9018959C9B05C081E0809387
:1001400067008EEA08958091660080936700809131
:100150006D000895089585B3836085BB84B38C7F5B
:1001600084BB88E480B911B808958093E7000895AE
:100170001F920F920FB60F9211242F933F934F931C
:100180005F936F937F938F939F93AF93BF93EF93FF
:10019000FF9381B1887F803609F412C1A0F58832BF
:1001A00009F496C090F4803109F467C038F48823CC
:1001B00009F457C0883009F458C057C1883109F490
:1001C0006BC0803209F4C5C050C1803409F4BEC090
:1001D00080F4803309F4B2C0883309F046C18091BD
:1001E000E70080628093E7001092DA001092E3004B
:1001F000ABC0803509F4B9C0883509F4CAC0883469
:1002000009F033C1A6C0883909F4F0C0A8F48837D2
:1002100009F4CDC038F4883609F4C9C0803709F430
:10022000CFC023C1883809F4E1C0803909F4D0C0B7
:10023000803809F01AC1CCC0803B09F4E5C038F41D
:10024000803A09F4DFC0883A09F4E7C00EC1803C67
:1002500009F4FBC0883C09F4F8C0883B09F4E4C009
:1002600004C18091E700816077C09091E7009C70A5
:100270008091DE00911108C00DC09091E7009C7044
:100280008091DE00983031F08E7F8093DE00809187
:10029000DE00C7C08160F9CF8091E7008C708430A8
:1002A00071F4E091DA00F0E0E552FF4F808183B90C
:1002B0008091DA008F5F8093DA0085E886BF8091B5
:1002C000E7008C70883009F0D0C0E091E3002BC0CB
:1002D0008091E7008C708430D1F4E091DA00809155
:1002E000E400E81308C085E986BFE0916400F0915E
:1002F000650009950CC0F0E0E552FF4F808183B99D
:100300008091DA008F5F8093DA0085E886BF809164
:10031000E7008C70883009F0A8C0E091E30080917C
:10032000E000E81789F0F0E0EF51FF4F808183B9DA
:100330008091E3008F5F8093E30074C08091E700B9
:1003400082608093E7002CC085EA7DC08091DA004E
:1003500017C08091E70080618093E70085E986BF40
:10036000E0916000F09161007FC08091DA0093B16C
:10037000E82FF0E0E552FF4F90838F5F8093DA0023
:1003800090E001962091E40030E082179307D1F5C8
:1003900049C083B1E091DA00F0E0E552FF4F80837D
:1003A00085E986BFE0916400F09165005DC08091B1
:1003B000E700806A8093E7001092DA001092E30071
:1003C0008091E70080648093E7001092E5002AC0E6
:1003D0008091E50093B1E82FF0E0EA51FF4F908360
:1003E0008F5F8093E50081110DC01CC083B1E09147
:1003F000E500F0E0EA51FF4F80838091E70087FF3E
:100400002DC02AC085EC1FC08091E700806A8093D0
:10041000E7001092DA001092E3001092E50080915C
:10042000DF0083B985E80FC0E091E500EF5FE0935E
:10043000E500F0E0E152FF4F808183B98091E50053
:10044000882381F381EC86BF10C08091E70087FF8D
:1004500005C08F778093E70085EE01C085EC86BFED
:10046000E0916200F09163000995FF91EF91BF91D7
:10047000AF919F918F917F916F915F914F913F913C
:100480002F910F900FBE0F901F9018959091E7003D
:1004900096FD19C01092DA0093E09093E4008093E7
:1004A000DE007093DB006093DC004093DD0084E0AD
:1004B0008093E70085EA86BF8091E700806480939F
:1004C000E70081E0089580E008958091EC00809538
:1004D0000895CF9380916E0080FD46C010928100F8
:1004E0008091840083FF22C08091EF00843A51F014
:1004F00090918200992321F090E00E943F0302C076
:100500000E947103809182009091E8002091EB009D
:10051000292B3091E900232B9091EC009823822F16
:10052000892BC091EE00C8238C2F1AC0C091ED001A
:100530009091E8008091EB00982B2091E900922B9C
:100540009C238091EC008C234091820020918200BA
:100550003091EA00C323C92B2823C227842389278B
:100560000E94C5038C2F05C08091810082700E947B
:10057000BC02CF910C947A03813019F48091700001
:100580000895823019F480916F00089580E00895F5
:1005900020E030E090E0D998AC01022E02C05595E1
:1005A00047950A94E2F740FF02C0DA9A01C0DA9850
:1005B000D99A2F5F3F4F2830310569F70895D898B1
:1005C0000E94C802DA98D89A0895E82F60E070E097
:1005D00080E0DB01A05FBE4F9C912C9130E00E2E9D
:1005E00002C0359527950A94E2F728703327A901B0
:1005F0005595479555954795292F30E00E2E02C009
:10060000359527950A94E2F721703327242B352B53
:10061000AB01440F551F01C0220F4A95EAF7822B08
:100620006F5F7F4F64307105A1F60895CF93DF931C
:100630001F92CDB7DEB7198280E40E94DF02D898FE
:1006400080EC0E94C802198289818B3058F4E981BC
:10065000F0E0E55EFE4F80810E94C80289818F5FD5
:100660008983F2CFD89A83E00E94DF0280916700ED
:1006700088680E94DF020F90DF91CF910895F8946F
:1006800020912301309121012078FC018F3F9105B9
:1006900009F090F4EF70FF27EC5AFF4FE4912E2BF6
:1006A000209323013078FC01E07FFF2794E0F6954A
:1006B000E7959A95E1F70DC0FF27EC5AFF4FE491BB
:1006C0002E2B209323013078FC01EE27FF77EF2FAC
:1006D000FF27EC5AFF4FE491E32BE093210178943C
:1006E0000895EBE1F1E080858078808786818078CD
:1006F0008683089590911B0180FF02C0916001C024
:100700009E7F90931B0190911B0181FF02C094601A
:1007100001C09B7F90931B0190911B0182FF02C03F
:10072000906101C09F7E90931B0190911B0183FFFC
:1007300002C0906401C09F7B90931B0190911C01AB
:1007400084FF02C0916001C09E7F90931C01909134
:100750001D0185FF02C0916001C09E7F90931D0125
:1007600090911D0186FF02C0946001C09B7F909311
:100770001D0190911D0187FF03C0892F806102C078
:10078000892F8F7E80931D01089590911B0180FF1A
:1007900002C0926001C09D7F90931B0190911B014C
:1007A00081FF02C0986001C0977F90931B019091D8
:1007B0001B0182FF02C0906201C09F7D90931B01CC
:1007C00090911B0183FF02C0906801C09F779093B6
:1007D0001B0190911C0184FF02C0926001C09D7FAB
:1007E00090931C0190911D0185FF02C0926001C091
:1007F0009D7F90931D0190911D0186FF02C098601E
:1008000001C0977F90931D0190911D0187FF03C048
:10081000892F806202C0892F8F7D80931D010895EA
:10082000CF93DF93C0918000C33008F061C0D0E067
:10083000D89882E40E94C802D29840E050E0A1E03B
:10084000B0E085E08C9FB0018D9F700D11246F5832
:100850007F4F20E030E080E00000D99800000000E9
:1008600000000000FD01022E01C0EE0F0A94EAF71D
:10087000CA9B03C08E2B000002C0E0958E230000AF
:10088000D99A0000000000000000000000000000F5
:100890002F5F3F4F28303105F9F6FB01E40FF51FBC
:1008A00080834F5F5F4F4530510599F6DA98D29AB1
:1008B000D89AD9988091800095E0899FF001112401
:1008C000EF58FF4F9081947261F49181947249F4D2
:1008D0009281947231F49381947219F49481947298
:1008E00019F0109280001FC08F5F809380001BC0A2
:1008F0001092800080E090E0FC01EF58FF4F708183
:100900006581458152852081328567234523462BA9
:100910003223242F232BFC01E05FFE4F208301961E
:100920008530910549F7DF91CF910895843031F0FA
:10093000863039F0823049F480E001C081E00C94C7
:10094000E502809114018271089580E00895FF927C
:100950000F931F93CF93DF93F82E0E949604CF2D11
:10096000D0E0FE01ED5EFE4F81110AC0108284E0EE
:10097000F8121AC00E946502FE01EC5EFE4F11C023
:100980009081891789F080838E010C5E1E4FF801DB
:10099000908189278083F4E0FF1206C00E946502DF
:1009A000F801908189238083CC5EDE4F8881DF91BE
:1009B000CF911F910F91FF90089584E680932E01AF
:1009C00086EF8DBD8BE38CBD8EB583608EBD86E0DA
:1009D00082BF83B7836083BF89B7856089BF08956D
:1009E000CF93DF9300D0CDB7DEB79A838983898117
:1009F0009A81892B79F0F894109235011092340184
:100A00007894209134013091350189819A81281799
:100A10003907B9F70F900F90DF91CF9108951F928A
:100A20000F920FB60F9211242F933F934F935F9322
:100A30006F937F938F939F93AF93BF93EF93FF93A6
:100A400086EF8DBD8BE38CBD809131018F5F8093EC
:100A500031018C3038F01092310180918100809505
:100A600080938100809130018F5F809330018233C9
:100A700008F467C0109230018091820080958093C5
:100A80008200809126018F5F809326018E3178F15C
:100A9000109226018091840081608093840080916F
:100AA00084008F7D80938400809127018F5F8093E5
:100AB0002701803F70F010922701809129018F5FFC
:100AC0008093290180912901893118F088E1809370
:100AD0002901809128018F5F809328018A3038F0A6
:100AE00010922801809184008F7B809384008091F4
:100AF000840083FF0EC080912A018F5F80932A01BA
:100B0000863038F010922A0180918400877F80938C
:100B100084008091840084FF14C0909182008091B1
:100B2000240190FB80F9809324010E949C0088237B
:100B300041F0909182008091240190FB81F9809393
:100B400024018091840081FD11C00E9469020E94ED
:100B50009C0090918200892349F08091840083FD5C
:100B600005C00E949C0090E00E943F0378940E9480
:100B700016030E941004F8948091140184FF0DC0A4
:100B800080912B0190912C01019690932C018093E0
:100B90002B018C32914058F432C082E00E949604BE
:100BA0008111EECF10922C0110922B0128C0809160
:100BB000140184FF12C080912B0190912C01843F7D
:100BC0009140E8F010922C0110922B01909184003A
:100BD00082E089278093840012C010922C01109229
:100BE0002B01809184008460809384008091840034
:100BF0008E7F80938400109226011092270186E058
:100C00000E94A70484FF1BC084E00E9496048823EE
:100C1000A1F080912F018F5F80932F0180912F0190
:100C2000843668F010922F0184E00E94960490911F
:100C3000680089278093680002C010922F0180917C
:100C4000840081FF3DC084E00E949604811104C0AD
:100C50008091140181FF2FC080912D018F5F8093BF
:100C60002D0190912D0180912E01981778F084E04C
:100C70000E949604882351F010922D0189E0809300
:100C80002E018091840080688093840080912D01E2
:100C90008F3FB1F490911401969591708091140159
:100CA00082958170891760F49091830088E089278C
:100CB0008093830005C010922D0184E680932E015D
:100CC00080912501CB9B02C08E7F01C08160809303
:100CD00025018091830080918300FF91EF91BF9166
:100CE000AF919F918F917F916F915F914F913F91C4
:100CF0002F910F900FBE0F901F9018951F920F927B
:100D00000FB60F9211248F939F9386E082BF80913C
:100D1000340190913501019690933501809334010F
:100D2000809132018F5F809332018A3F31F492B318
:100D300080E4892782BB10923201809133018F5F5A
:100D4000809333018A3F31F492B380E2892782BBDA
:100D5000109233019F918F910F900FBE0F901F90B3
:100D60001895FC019FEF81E3615060F0219192277B
:100D700028E097FF03C0990F982701C0990F2150D1
:100D8000C1F7F2CF892F8F77089581B3846681BB35
:100D900082B38B7982BB83E089B910BC1BB888E031
:100DA0008AB986E880BD08951F920F920FB60F9200
:100DB00011242F933F934F935F936F937F938F9360
:100DC0009F93AF93BF93CF93EF93FF938BB1CCB12E
:100DD0008C7109F060C0809143018F5F8093430163
:100DE00080918500813829F080918500883809F04C
:100DF00049C0809185008138E1F59091860080910D
:100E00003601981329C062E085E890E00E94B1069F
:100E10001092430110928500109286008C133BC003
:100E20008091D7008F5F8093D700853030F010928B
:100E3000D7001092D6001092D5001092D9001092CF
:100E4000D800809123018F778093230180918300C4
:100E50008460809383001FC08C1303C0C0938600FE
:100E60001AC0109243011092850081E080938600A1
:100E700012C080918500883871F010924301109261
:100E8000850009C0C13811F0C83819F4C093850035
:100E900002C010924301FF91EF91CF91BF91AF91AA
:100EA0009F918F917F916F915F914F913F912F9182
:100EB0000F900FBE0F901F9018951F920F920FB6B4
:100EC0000F9211248F939F93EF93FF9380913E0194
:100ED0008F5F80933E0190913F01891710F05698E3
:100EE0000AC080913E01E0914001F0914101E80F7C
:100EF000F11D80818CB9FF91EF919F918F910F909F
:0C0F00000FBE0F901F901895F894FFCFC3
:0A0F0C00AA00AA00AA000202FF00DA
:00000001FF
